{
  "contractName": "SyntheticPool",
  "abi": [
    {
      "anonymous": false,
      "inputs": [
        {
          "indexed": false,
          "internalType": "address",
          "name": "previousAdmin",
          "type": "address"
        },
        {
          "indexed": false,
          "internalType": "address",
          "name": "newAdmin",
          "type": "address"
        }
      ],
      "name": "AdminChanged",
      "type": "event"
    },
    {
      "anonymous": false,
      "inputs": [
        {
          "indexed": true,
          "internalType": "address",
          "name": "beacon",
          "type": "address"
        }
      ],
      "name": "BeaconUpgraded",
      "type": "event"
    },
    {
      "anonymous": false,
      "inputs": [
        {
          "indexed": true,
          "internalType": "uint256",
          "name": "pid",
          "type": "uint256"
        },
        {
          "indexed": true,
          "internalType": "address",
          "name": "sender",
          "type": "address"
        },
        {
          "indexed": true,
          "internalType": "address",
          "name": "account",
          "type": "address"
        },
        {
          "indexed": false,
          "internalType": "uint256",
          "name": "systemCoinAmount",
          "type": "uint256"
        },
        {
          "indexed": false,
          "internalType": "uint256",
          "name": "synTokenAmount",
          "type": "uint256"
        }
      ],
      "name": "BurnSynToken",
      "type": "event"
    },
    {
      "anonymous": false,
      "inputs": [
        {
          "indexed": false,
          "internalType": "uint256",
          "name": "pid",
          "type": "uint256"
        },
        {
          "indexed": false,
          "internalType": "uint256",
          "name": "orderId",
          "type": "uint256"
        },
        {
          "indexed": false,
          "internalType": "address",
          "name": "account",
          "type": "address"
        }
      ],
      "name": "CancelOrder",
      "type": "event"
    },
    {
      "anonymous": false,
      "inputs": [
        {
          "indexed": false,
          "internalType": "uint8",
          "name": "version",
          "type": "uint8"
        }
      ],
      "name": "Initialized",
      "type": "event"
    },
    {
      "anonymous": false,
      "inputs": [
        {
          "indexed": true,
          "internalType": "uint256",
          "name": "pid",
          "type": "uint256"
        },
        {
          "indexed": true,
          "internalType": "address",
          "name": "sender",
          "type": "address"
        },
        {
          "indexed": true,
          "internalType": "address",
          "name": "account",
          "type": "address"
        },
        {
          "indexed": false,
          "internalType": "uint256",
          "name": "systemCoinAmount",
          "type": "uint256"
        },
        {
          "indexed": false,
          "internalType": "uint256",
          "name": "synTokenAmount",
          "type": "uint256"
        }
      ],
      "name": "MintSynToken",
      "type": "event"
    },
    {
      "anonymous": false,
      "inputs": [
        {
          "indexed": true,
          "internalType": "uint256",
          "name": "pid",
          "type": "uint256"
        },
        {
          "indexed": true,
          "internalType": "uint256",
          "name": "orderType",
          "type": "uint256"
        },
        {
          "indexed": false,
          "internalType": "uint256",
          "name": "orderId",
          "type": "uint256"
        },
        {
          "indexed": true,
          "internalType": "address",
          "name": "account",
          "type": "address"
        },
        {
          "indexed": false,
          "internalType": "uint256",
          "name": "systemCoinAmount",
          "type": "uint256"
        },
        {
          "indexed": false,
          "internalType": "uint256",
          "name": "minSystemCoinAmount",
          "type": "uint256"
        },
        {
          "indexed": false,
          "internalType": "uint256",
          "name": "synTokenAmount",
          "type": "uint256"
        },
        {
          "indexed": false,
          "internalType": "uint256",
          "name": "minSynTokenAmount",
          "type": "uint256"
        },
        {
          "indexed": false,
          "internalType": "uint256",
          "name": "synTokenPrice",
          "type": "uint256"
        }
      ],
      "name": "OpenOrder",
      "type": "event"
    },
    {
      "anonymous": false,
      "inputs": [
        {
          "indexed": true,
          "internalType": "address",
          "name": "previousOwner",
          "type": "address"
        },
        {
          "indexed": true,
          "internalType": "address",
          "name": "newOwner",
          "type": "address"
        }
      ],
      "name": "OwnershipTransferred",
      "type": "event"
    },
    {
      "anonymous": false,
      "inputs": [
        {
          "indexed": false,
          "internalType": "address",
          "name": "account",
          "type": "address"
        }
      ],
      "name": "Paused",
      "type": "event"
    },
    {
      "anonymous": false,
      "inputs": [
        {
          "indexed": false,
          "internalType": "uint256",
          "name": "pid",
          "type": "uint256"
        },
        {
          "indexed": false,
          "internalType": "bool",
          "name": "newMintsEnabled",
          "type": "bool"
        },
        {
          "indexed": false,
          "internalType": "bool",
          "name": "newBurnsEnabled",
          "type": "bool"
        }
      ],
      "name": "PoolsEnabled",
      "type": "event"
    },
    {
      "anonymous": false,
      "inputs": [
        {
          "indexed": true,
          "internalType": "address",
          "name": "sender",
          "type": "address"
        },
        {
          "indexed": false,
          "internalType": "uint256",
          "name": "emergencyStart",
          "type": "uint256"
        }
      ],
      "name": "SetEmergency",
      "type": "event"
    },
    {
      "anonymous": false,
      "inputs": [
        {
          "indexed": false,
          "internalType": "address",
          "name": "account",
          "type": "address"
        }
      ],
      "name": "Unpaused",
      "type": "event"
    },
    {
      "anonymous": false,
      "inputs": [
        {
          "indexed": false,
          "internalType": "uint256",
          "name": "pid",
          "type": "uint256"
        },
        {
          "indexed": false,
          "internalType": "uint256",
          "name": "orderId",
          "type": "uint256"
        },
        {
          "indexed": false,
          "internalType": "uint256",
          "name": "systemCoinAmount",
          "type": "uint256"
        },
        {
          "indexed": false,
          "internalType": "uint256",
          "name": "synTokenAmount",
          "type": "uint256"
        }
      ],
      "name": "UpdateOrder",
      "type": "event"
    },
    {
      "anonymous": false,
      "inputs": [
        {
          "indexed": true,
          "internalType": "address",
          "name": "implementation",
          "type": "address"
        }
      ],
      "name": "Upgraded",
      "type": "event"
    },
    {
      "inputs": [
        {
          "internalType": "address",
          "name": "",
          "type": "address"
        }
      ],
      "name": "authorized",
      "outputs": [
        {
          "internalType": "bool",
          "name": "",
          "type": "bool"
        }
      ],
      "stateMutability": "view",
      "type": "function"
    },
    {
      "inputs": [
        {
          "internalType": "uint256",
          "name": "",
          "type": "uint256"
        },
        {
          "internalType": "uint256",
          "name": "",
          "type": "uint256"
        }
      ],
      "name": "orderInfo",
      "outputs": [
        {
          "internalType": "address",
          "name": "account",
          "type": "address"
        },
        {
          "internalType": "uint128",
          "name": "systemCoinAmount",
          "type": "uint128"
        },
        {
          "internalType": "uint128",
          "name": "minSystemCoinAmount",
          "type": "uint128"
        },
        {
          "internalType": "uint128",
          "name": "synTokenAmount",
          "type": "uint128"
        },
        {
          "internalType": "uint128",
          "name": "minSynTokenAmount",
          "type": "uint128"
        },
        {
          "internalType": "uint32",
          "name": "orderId",
          "type": "uint32"
        },
        {
          "internalType": "uint64",
          "name": "synTokenPrice",
          "type": "uint64"
        },
        {
          "internalType": "uint64",
          "name": "openTime",
          "type": "uint64"
        },
        {
          "internalType": "uint64",
          "name": "closeTime",
          "type": "uint64"
        },
        {
          "internalType": "uint8",
          "name": "orderType",
          "type": "uint8"
        },
        {
          "internalType": "uint8",
          "name": "status",
          "type": "uint8"
        }
      ],
      "stateMutability": "view",
      "type": "function"
    },
    {
      "inputs": [],
      "name": "owner",
      "outputs": [
        {
          "internalType": "address",
          "name": "",
          "type": "address"
        }
      ],
      "stateMutability": "view",
      "type": "function"
    },
    {
      "inputs": [],
      "name": "paused",
      "outputs": [
        {
          "internalType": "bool",
          "name": "",
          "type": "bool"
        }
      ],
      "stateMutability": "view",
      "type": "function"
    },
    {
      "inputs": [
        {
          "internalType": "uint256",
          "name": "",
          "type": "uint256"
        }
      ],
      "name": "poolInfo",
      "outputs": [
        {
          "internalType": "contract ISynthetic",
          "name": "syntheticToken",
          "type": "address"
        },
        {
          "internalType": "contract IAggregatorV3",
          "name": "oracleChainlink",
          "type": "address"
        },
        {
          "internalType": "uint256",
          "name": "txAmount",
          "type": "uint256"
        },
        {
          "internalType": "bool",
          "name": "mintsEnabled",
          "type": "bool"
        },
        {
          "internalType": "bool",
          "name": "burnsEnabled",
          "type": "bool"
        }
      ],
      "stateMutability": "view",
      "type": "function"
    },
    {
      "inputs": [],
      "name": "proxiableUUID",
      "outputs": [
        {
          "internalType": "bytes32",
          "name": "",
          "type": "bytes32"
        }
      ],
      "stateMutability": "view",
      "type": "function"
    },
    {
      "inputs": [],
      "name": "renounceOwnership",
      "outputs": [],
      "stateMutability": "nonpayable",
      "type": "function"
    },
    {
      "inputs": [
        {
          "internalType": "address",
          "name": "newOwner",
          "type": "address"
        }
      ],
      "name": "transferOwnership",
      "outputs": [],
      "stateMutability": "nonpayable",
      "type": "function"
    },
    {
      "inputs": [
        {
          "internalType": "address",
          "name": "newImplementation",
          "type": "address"
        }
      ],
      "name": "upgradeTo",
      "outputs": [],
      "stateMutability": "nonpayable",
      "type": "function"
    },
    {
      "inputs": [
        {
          "internalType": "address",
          "name": "newImplementation",
          "type": "address"
        },
        {
          "internalType": "bytes",
          "name": "data",
          "type": "bytes"
        }
      ],
      "name": "upgradeToAndCall",
      "outputs": [],
      "stateMutability": "payable",
      "type": "function"
    },
    {
      "inputs": [
        {
          "internalType": "uint256",
          "name": "",
          "type": "uint256"
        },
        {
          "internalType": "address",
          "name": "",
          "type": "address"
        },
        {
          "internalType": "uint256",
          "name": "",
          "type": "uint256"
        }
      ],
      "name": "userOrderId",
      "outputs": [
        {
          "internalType": "uint256",
          "name": "",
          "type": "uint256"
        }
      ],
      "stateMutability": "view",
      "type": "function"
    },
    {
      "inputs": [
        {
          "internalType": "address",
          "name": "_reservePool",
          "type": "address"
        },
        {
          "internalType": "address",
          "name": "_systemCoin",
          "type": "address"
        },
        {
          "internalType": "address",
          "name": "_USBPool",
          "type": "address"
        },
        {
          "internalType": "uint256",
          "name": "_minSystemCoinTxAmount",
          "type": "uint256"
        },
        {
          "internalType": "uint256",
          "name": "_minSynTokenTxAmount",
          "type": "uint256"
        },
        {
          "internalType": "uint256",
          "name": "_txFee",
          "type": "uint256"
        },
        {
          "internalType": "uint256",
          "name": "_tolCloseMargin",
          "type": "uint256"
        },
        {
          "internalType": "uint256",
          "name": "_synPoolPriceDecimal",
          "type": "uint256"
        }
      ],
      "name": "initContract",
      "outputs": [],
      "stateMutability": "nonpayable",
      "type": "function"
    },
    {
      "inputs": [
        {
          "internalType": "address",
          "name": "_synToken",
          "type": "address"
        },
        {
          "internalType": "address",
          "name": "_oracle",
          "type": "address"
        }
      ],
      "name": "add",
      "outputs": [],
      "stateMutability": "nonpayable",
      "type": "function"
    },
    {
      "inputs": [
        {
          "internalType": "uint256",
          "name": "pid",
          "type": "uint256"
        },
        {
          "internalType": "uint128",
          "name": "syntheticTokenAmount",
          "type": "uint128"
        },
        {
          "internalType": "uint128",
          "name": "_minSynTokenAmount",
          "type": "uint128"
        },
        {
          "internalType": "uint64",
          "name": "_synTokenPrice",
          "type": "uint64"
        }
      ],
      "name": "openBuyOrder",
      "outputs": [],
      "stateMutability": "nonpayable",
      "type": "function"
    },
    {
      "inputs": [
        {
          "internalType": "uint256",
          "name": "pid",
          "type": "uint256"
        },
        {
          "internalType": "uint128",
          "name": "_synTokenAmount",
          "type": "uint128"
        },
        {
          "internalType": "uint128",
          "name": "_minSystemCoinAmount",
          "type": "uint128"
        },
        {
          "internalType": "uint64",
          "name": "_synTokenPrice",
          "type": "uint64"
        }
      ],
      "name": "openSellOrder",
      "outputs": [],
      "stateMutability": "nonpayable",
      "type": "function"
    },
    {
      "inputs": [
        {
          "internalType": "uint256",
          "name": "pid",
          "type": "uint256"
        },
        {
          "internalType": "uint8",
          "name": "orderType",
          "type": "uint8"
        },
        {
          "internalType": "uint128",
          "name": "_synTokenAmount",
          "type": "uint128"
        },
        {
          "internalType": "uint64",
          "name": "_synTokenPrice",
          "type": "uint64"
        }
      ],
      "name": "openLimitOrder",
      "outputs": [],
      "stateMutability": "nonpayable",
      "type": "function"
    },
    {
      "inputs": [
        {
          "internalType": "uint256",
          "name": "pid",
          "type": "uint256"
        },
        {
          "internalType": "uint256",
          "name": "_orderId",
          "type": "uint256"
        },
        {
          "internalType": "uint128",
          "name": "_systemCoinAmount",
          "type": "uint128"
        },
        {
          "internalType": "uint128",
          "name": "_synTokenAmount",
          "type": "uint128"
        }
      ],
      "name": "closeOrder",
      "outputs": [],
      "stateMutability": "nonpayable",
      "type": "function"
    },
    {
      "inputs": [
        {
          "internalType": "uint256",
          "name": "pid",
          "type": "uint256"
        },
        {
          "internalType": "uint256",
          "name": "_orderId",
          "type": "uint256"
        }
      ],
      "name": "cancelOrder",
      "outputs": [],
      "stateMutability": "nonpayable",
      "type": "function"
    },
    {
      "inputs": [
        {
          "internalType": "uint256",
          "name": "pid",
          "type": "uint256"
        }
      ],
      "name": "cancelAllOrders",
      "outputs": [],
      "stateMutability": "nonpayable",
      "type": "function"
    },
    {
      "inputs": [
        {
          "internalType": "uint256",
          "name": "pid",
          "type": "uint256"
        },
        {
          "internalType": "uint256",
          "name": "_orderId",
          "type": "uint256"
        }
      ],
      "name": "cancelOrderAuthorized",
      "outputs": [],
      "stateMutability": "nonpayable",
      "type": "function"
    },
    {
      "inputs": [
        {
          "internalType": "uint256",
          "name": "orderType",
          "type": "uint256"
        },
        {
          "internalType": "uint256",
          "name": "inputSystemCoinAmount",
          "type": "uint256"
        },
        {
          "internalType": "uint256",
          "name": "inputSynTokenAmount",
          "type": "uint256"
        },
        {
          "internalType": "uint256",
          "name": "_synTokenPrice",
          "type": "uint256"
        },
        {
          "internalType": "uint256",
          "name": "synTokenDecimal",
          "type": "uint256"
        }
      ],
      "name": "verifyTol",
      "outputs": [
        {
          "internalType": "uint256",
          "name": "estimatedReturn",
          "type": "uint256"
        },
        {
          "internalType": "bool",
          "name": "tolStatus",
          "type": "bool"
        }
      ],
      "stateMutability": "view",
      "type": "function"
    },
    {
      "inputs": [],
      "name": "getSystemCoin",
      "outputs": [
        {
          "internalType": "address",
          "name": "",
          "type": "address"
        }
      ],
      "stateMutability": "view",
      "type": "function"
    },
    {
      "inputs": [],
      "name": "getUSBPool",
      "outputs": [
        {
          "internalType": "address",
          "name": "",
          "type": "address"
        }
      ],
      "stateMutability": "view",
      "type": "function"
    },
    {
      "inputs": [],
      "name": "getReservePool",
      "outputs": [
        {
          "internalType": "address",
          "name": "",
          "type": "address"
        }
      ],
      "stateMutability": "view",
      "type": "function"
    },
    {
      "inputs": [],
      "name": "getPoolLength",
      "outputs": [
        {
          "internalType": "uint256",
          "name": "",
          "type": "uint256"
        }
      ],
      "stateMutability": "view",
      "type": "function"
    },
    {
      "inputs": [
        {
          "internalType": "uint256",
          "name": "pid",
          "type": "uint256"
        }
      ],
      "name": "getPoolOrderLength",
      "outputs": [
        {
          "internalType": "uint256",
          "name": "",
          "type": "uint256"
        }
      ],
      "stateMutability": "view",
      "type": "function"
    },
    {
      "inputs": [
        {
          "internalType": "uint256",
          "name": "pid",
          "type": "uint256"
        },
        {
          "internalType": "address",
          "name": "account",
          "type": "address"
        }
      ],
      "name": "getUserOrderLength",
      "outputs": [
        {
          "internalType": "uint256",
          "name": "",
          "type": "uint256"
        }
      ],
      "stateMutability": "view",
      "type": "function"
    },
    {
      "inputs": [],
      "name": "getTotalTxAmount",
      "outputs": [
        {
          "internalType": "uint256",
          "name": "",
          "type": "uint256"
        }
      ],
      "stateMutability": "view",
      "type": "function"
    },
    {
      "inputs": [],
      "name": "getMinTxAmount",
      "outputs": [
        {
          "internalType": "uint256",
          "name": "",
          "type": "uint256"
        },
        {
          "internalType": "uint256",
          "name": "",
          "type": "uint256"
        }
      ],
      "stateMutability": "view",
      "type": "function"
    },
    {
      "inputs": [
        {
          "internalType": "uint256",
          "name": "pid",
          "type": "uint256"
        }
      ],
      "name": "getPoolPrice",
      "outputs": [
        {
          "internalType": "uint256",
          "name": "",
          "type": "uint256"
        }
      ],
      "stateMutability": "view",
      "type": "function"
    },
    {
      "inputs": [
        {
          "internalType": "uint256",
          "name": "pid",
          "type": "uint256"
        },
        {
          "internalType": "address",
          "name": "account",
          "type": "address"
        }
      ],
      "name": "getUserOrders",
      "outputs": [
        {
          "components": [
            {
              "internalType": "address",
              "name": "account",
              "type": "address"
            },
            {
              "internalType": "uint128",
              "name": "systemCoinAmount",
              "type": "uint128"
            },
            {
              "internalType": "uint128",
              "name": "minSystemCoinAmount",
              "type": "uint128"
            },
            {
              "internalType": "uint128",
              "name": "synTokenAmount",
              "type": "uint128"
            },
            {
              "internalType": "uint128",
              "name": "minSynTokenAmount",
              "type": "uint128"
            },
            {
              "internalType": "uint32",
              "name": "orderId",
              "type": "uint32"
            },
            {
              "internalType": "uint64",
              "name": "synTokenPrice",
              "type": "uint64"
            },
            {
              "internalType": "uint64",
              "name": "openTime",
              "type": "uint64"
            },
            {
              "internalType": "uint64",
              "name": "closeTime",
              "type": "uint64"
            },
            {
              "internalType": "uint8",
              "name": "orderType",
              "type": "uint8"
            },
            {
              "internalType": "uint8",
              "name": "status",
              "type": "uint8"
            }
          ],
          "internalType": "struct SyntheticPool.OrderInfo[]",
          "name": "orders",
          "type": "tuple[]"
        }
      ],
      "stateMutability": "view",
      "type": "function"
    },
    {
      "inputs": [
        {
          "internalType": "address",
          "name": "token",
          "type": "address"
        },
        {
          "internalType": "uint256",
          "name": "amount",
          "type": "uint256"
        },
        {
          "internalType": "address",
          "name": "_to",
          "type": "address"
        }
      ],
      "name": "rescueDeployedFunds",
      "outputs": [],
      "stateMutability": "nonpayable",
      "type": "function"
    },
    {
      "inputs": [
        {
          "internalType": "address",
          "name": "_toAdd",
          "type": "address"
        }
      ],
      "name": "addAuthorized",
      "outputs": [],
      "stateMutability": "nonpayable",
      "type": "function"
    },
    {
      "inputs": [
        {
          "internalType": "address",
          "name": "_toRemove",
          "type": "address"
        }
      ],
      "name": "removeAuthorized",
      "outputs": [],
      "stateMutability": "nonpayable",
      "type": "function"
    },
    {
      "inputs": [
        {
          "internalType": "address",
          "name": "newReservePool",
          "type": "address"
        }
      ],
      "name": "setReservePool",
      "outputs": [],
      "stateMutability": "nonpayable",
      "type": "function"
    },
    {
      "inputs": [
        {
          "internalType": "address",
          "name": "newUSBPool",
          "type": "address"
        }
      ],
      "name": "setUSBPool",
      "outputs": [],
      "stateMutability": "nonpayable",
      "type": "function"
    },
    {
      "inputs": [
        {
          "internalType": "uint128",
          "name": "newSystemCoinTxFloor",
          "type": "uint128"
        },
        {
          "internalType": "uint128",
          "name": "newSynTokenTxFloor",
          "type": "uint128"
        }
      ],
      "name": "setPoolsMinTx",
      "outputs": [],
      "stateMutability": "nonpayable",
      "type": "function"
    },
    {
      "inputs": [
        {
          "internalType": "uint256",
          "name": "pid",
          "type": "uint256"
        },
        {
          "internalType": "bool",
          "name": "newMintsEnabled",
          "type": "bool"
        },
        {
          "internalType": "bool",
          "name": "newBurnsEnabled",
          "type": "bool"
        }
      ],
      "name": "setPoolsEnabled",
      "outputs": [],
      "stateMutability": "nonpayable",
      "type": "function"
    },
    {
      "inputs": [
        {
          "internalType": "uint256",
          "name": "newTolCloseMargin",
          "type": "uint256"
        }
      ],
      "name": "setTolCloseMargin",
      "outputs": [],
      "stateMutability": "nonpayable",
      "type": "function"
    },
    {
      "inputs": [
        {
          "internalType": "address",
          "name": "synToken",
          "type": "address"
        },
        {
          "internalType": "uint256",
          "name": "_newSynPoolPrice",
          "type": "uint256"
        }
      ],
      "name": "updateSynPoolPrice",
      "outputs": [],
      "stateMutability": "nonpayable",
      "type": "function"
    },
    {
      "inputs": [
        {
          "internalType": "uint256",
          "name": "pid",
          "type": "uint256"
        },
        {
          "internalType": "address",
          "name": "oracle",
          "type": "address"
        }
      ],
      "name": "updatePoolOraclAdd",
      "outputs": [],
      "stateMutability": "nonpayable",
      "type": "function"
    },
    {
      "inputs": [
        {
          "internalType": "uint256",
          "name": "pid",
          "type": "uint256"
        },
        {
          "internalType": "bool",
          "name": "newMintsEnabled",
          "type": "bool"
        },
        {
          "internalType": "bool",
          "name": "newBurnsEnabled",
          "type": "bool"
        }
      ],
      "name": "setPoolsOracle",
      "outputs": [],
      "stateMutability": "nonpayable",
      "type": "function"
    },
    {
      "inputs": [
        {
          "internalType": "uint256",
          "name": "pid",
          "type": "uint256"
        },
        {
          "internalType": "uint256",
          "name": "_orderId",
          "type": "uint256"
        },
        {
          "internalType": "uint128",
          "name": "systemCoinAmount",
          "type": "uint128"
        },
        {
          "internalType": "uint128",
          "name": "synTokenAmount",
          "type": "uint128"
        }
      ],
      "name": "updateOrderInfo",
      "outputs": [],
      "stateMutability": "nonpayable",
      "type": "function"
    },
    {
      "inputs": [],
      "name": "initialize",
      "outputs": [],
      "stateMutability": "nonpayable",
      "type": "function"
    }
  ],
  "bytecode": "0x60a06040523060805234801561001457600080fd5b50608051615aa66200004d60003960008181610db901528181610df901528181611178015281816111b801526113cf0152615aa66000f3fe6080604052600436106102665760003560e01c80636a96cee911610144578063b9181611116100b6578063cf1c316a1161007a578063cf1c316a14610903578063d89e775814610923578063e4ba3d7814610943578063ea45237114610963578063f2fde38b14610983578063fde75ba0146109a357600080fd5b8063b918161114610854578063bd545f5314610885578063c13b3b71146108a5578063ce1a0a37146108c5578063cf05d9c0146108e557600080fd5b80638c3877d2116101085780638c3877d21461067d5780638da5cb5b146107bb5780639af94f30146107d9578063b3944d521461081e578063b5d203571461063d578063b6ed06321461083457600080fd5b80636a96cee9146105f3578063715018a6146106135780638129fc1c14610628578063822ce0a31461063d578063836bbde71461065d57600080fd5b80634f1ef286116101dd578063554e5e01116101a1578063554e5e011461050857806357c64e44146105285780635c975abb146105675780635cb26eeb1461058b5780635f89f314146105be5780635f8ff089146105dd57600080fd5b80634f1ef286146104725780634f393a071461048557806352c28fab146104a557806352d1902d146104c5578063554096e9146104da57600080fd5b8063210fef461161022f578063210fef46146103a8578063275a4236146103c85780633659cfe6146103f25780633af928bb1461041257806341281b1d14610432578063485d7d941461045257600080fd5b80625b74e31461026b578063077e2e371461028d5780630b2edcd1146102ad5780631526fe27146102e7578063202260f71461037a575b600080fd5b34801561027757600080fd5b5061028b610286366004615039565b6109d0565b005b34801561029957600080fd5b5061028b6102a8366004615063565b610a5f565b3480156102b957600080fd5b506102cd6102c836600461509f565b610add565b604080519283529015156020830152015b60405180910390f35b3480156102f357600080fd5b506103436103023660046150da565b61010d6020526000908152604090208054600182015460028301546003909301546001600160a01b0392831693919092169160ff8082169161010090041685565b604080516001600160a01b03968716815295909416602086015292840191909152151560608301521515608082015260a0016102de565b34801561038657600080fd5b5061039a6103953660046150f3565b610cb2565b6040519081526020016102de565b3480156103b457600080fd5b5061028b6103c336600461514d565b610cdd565b3480156103d457600080fd5b506101065461010754604080519283526020830191909152016102de565b3480156103fe57600080fd5b5061028b61040d3660046151a2565b610daf565b34801561041e57600080fd5b5061028b61042d3660046150da565b610e8e565b34801561043e57600080fd5b5061028b61044d3660046151bd565b610ebd565b34801561045e57600080fd5b5061028b61046d3660046151a2565b61110d565b61028b6104803660046151f9565b61116e565b34801561049157600080fd5b5061028b6104a03660046151a2565b61123e565b3480156104b157600080fd5b5061028b6104c03660046152ba565b61129d565b3480156104d157600080fd5b5061039a6113c2565b3480156104e657600080fd5b5061039a6104f53660046150da565b6000908152610103602052604090205490565b34801561051457600080fd5b5061028b6105233660046152e4565b611475565b34801561053457600080fd5b5061039a610543366004615306565b61010c60209081526000938452604080852082529284528284209052825290205481565b34801561057357600080fd5b5060975460ff165b60405190151581526020016102de565b34801561059757600080fd5b50610100546001600160a01b03165b6040516001600160a01b0390911681526020016102de565b3480156105ca57600080fd5b50610101546001600160a01b03166105a6565b3480156105e957600080fd5b506101055461039a565b3480156105ff57600080fd5b5061028b61060e36600461533b565b61158c565b34801561061f57600080fd5b5061028b6116a2565b34801561063457600080fd5b5061028b6116d8565b34801561064957600080fd5b5061028b610658366004615384565b611768565b34801561066957600080fd5b5061028b6106783660046151bd565b611810565b34801561068957600080fd5b506107366106983660046152e4565b61010b60209081526000928352604080842090915290825290208054600182015460028301546003909301546001600160a01b03909216926001600160801b0380831693600160801b9384900482169383831693049091169063ffffffff8116906001600160401b036401000000008204811691600160601b8104821691600160a01b8204169060ff600160e01b8204811691600160e81b9004168b565b604080516001600160a01b03909c168c526001600160801b039a8b1660208d0152988a16988b019890985295881660608a015296909316608088015263ffffffff90911660a08701526001600160401b0390811660c087015290811660e086015290921661010084015260ff91821661012084015216610140820152610160016102de565b3480156107c757600080fd5b5060c9546001600160a01b03166105a6565b3480156107e557600080fd5b5061039a6107f43660046150da565b600090815261010d60209081526040808320546001600160a01b0316835261010a90915290205490565b34801561082a57600080fd5b506101025461039a565b34801561084057600080fd5b5061028b61084f3660046152e4565b611a60565b34801561086057600080fd5b5061057b61086f3660046151a2565b6101096020526000908152604090205460ff1681565b34801561089157600080fd5b5061028b6108a03660046150da565b611c23565b3480156108b157600080fd5b5061028b6108c036600461533b565b611e16565b3480156108d157600080fd5b5061028b6108e03660046153c6565b612045565b3480156108f157600080fd5b5060ff546001600160a01b03166105a6565b34801561090f57600080fd5b5061028b61091e3660046151a2565b612187565b34801561092f57600080fd5b5061028b61093e366004615437565b6121d6565b34801561094f57600080fd5b5061028b61095e3660046150f3565b612216565b34801561096f57600080fd5b5061028b61097e3660046151a2565b6122b1565b34801561098f57600080fd5b5061028b61099e3660046151a2565b612311565b3480156109af57600080fd5b506109c36109be3660046150f3565b6123a9565b6040516102de9190615461565b60c9546001600160a01b03163314610a035760405162461bcd60e51b81526004016109fa9061554c565b60405180910390fd5b6001600160a01b038216610a425760405162461bcd60e51b81526004016109fa90602080825260049082015263041213d360e41b604082015260600190565b6001600160a01b03909116600090815261010a6020526040902055565b60c9546001600160a01b03163314610a895760405162461bcd60e51b81526004016109fa9061554c565b6001600160a01b038116610ac45760405162461bcd60e51b8152602060048201526002602482015261304160f01b60448201526064016109fa565b610ad86001600160a01b03841682846125ab565b505050565b60008060008061010060009054906101000a90046001600160a01b03166001600160a01b031663313ce5676040518163ffffffff1660e01b8152600401602060405180830381865afa158015610b37573d6000803e3d6000fd5b505050506040513d601f19601f82011682018060405250810190610b5b9190615581565b905088600003610c0757600061010854826001600160801b0316610b7f91906155b0565b610b8a90600a6156ab565b610b9490886156b7565b610b9f87600a6156ab565b610ba9908b6156b7565b610bb391906156d6565b9050809250600060fb5460fc5485610bcb91906156b7565b610bd591906156d6565b905083610be282826156f8565b8a11158015610bfa5750610bf682866155b0565b8a10155b9550955050505050610ca8565b88600103610ca55761010854600090610c29876001600160801b0385166155b0565b610c3391906155b0565b610c3e90600a6156ab565b610c48888a6156b7565b610c5291906156b7565b9050809250600060fb5460fc5485610c6a91906156b7565b610c7491906156d6565b905083610c8182826156f8565b8b11158015610bfa5750610c9582866155b0565b8b10159550955050505050610ca8565b50505b9550959350505050565b6000828152610104602090815260408083206001600160a01b03851684529091529020545b92915050565b60975460ff1615610d005760405162461bcd60e51b81526004016109fa90615710565b60ff83161580610d1357508260ff166001145b610d495760405162461bcd60e51b815260206004820152600760248201526615dc9bdb99d3d560ca1b60448201526064016109fa565b6000826001600160801b0316118015610d6b57506000816001600160401b0316115b610d7457600080fd5b8260ff16600003610d9157610d8c848433858561260e565b610da9565b8260ff16600103610da957610da98484338585612c3a565b50505050565b6001600160a01b037f0000000000000000000000000000000000000000000000000000000000000000163003610df75760405162461bcd60e51b81526004016109fa9061573a565b7f00000000000000000000000000000000000000000000000000000000000000006001600160a01b0316610e40600080516020615a0a833981519152546001600160a01b031690565b6001600160a01b031614610e665760405162461bcd60e51b81526004016109fa90615786565b610e6f8161324d565b60408051600080825260208201909252610e8b91839190613277565b50565b60c9546001600160a01b03163314610eb85760405162461bcd60e51b81526004016109fa9061554c565b60fc55565b60975460ff1615610ee05760405162461bcd60e51b81526004016109fa90615710565b816001600160801b0316836001600160801b031611610f115760405162461bcd60e51b81526004016109fa906157d2565b600084815261010d60209081526040808320815160a08101835281546001600160a01b0390811680835260018401549091168286015260028301548285015260039092015460ff808216151560608401526101009091041615156080820152825163313ce56760e01b81529251909493919263313ce5679260048083019391928290030181865afa158015610faa573d6000803e3d6000fd5b505050506040513d601f19601f82011682018060405250810190610fce9190615581565b9050600061010060009054906101000a90046001600160a01b03166001600160a01b031663313ce5676040518163ffffffff1660e01b8152600401602060405180830381865afa158015611026573d6000803e3d6000fd5b505050506040513d601f19601f8201168201806040525081019061104a9190615581565b9050600061010854838361105e91906155b0565b61106891906155b0565b61107390600a6156ab565b6110866001600160401b03871689615815565b6001600160801b031661109991906156b7565b90506101065481101580156110ba575061010754876001600160801b031610155b6110f45760405162461bcd60e51b815260206004820152600b60248201526a078dad2dca8ded6cadca8f60ab1b60448201526064016109fa565b611103886000338a898b6133e2565b5050505050505050565b60c9546001600160a01b031633146111375760405162461bcd60e51b81526004016109fa9061554c565b336001600160a01b0382160361114c57600080fd5b6001600160a01b0316600090815261010960205260409020805460ff19169055565b6001600160a01b037f00000000000000000000000000000000000000000000000000000000000000001630036111b65760405162461bcd60e51b81526004016109fa9061573a565b7f00000000000000000000000000000000000000000000000000000000000000006001600160a01b03166111ff600080516020615a0a833981519152546001600160a01b031690565b6001600160a01b0316146112255760405162461bcd60e51b81526004016109fa90615786565b61122e8261324d565b61123a82826001613277565b5050565b60c9546001600160a01b031633146112685760405162461bcd60e51b81526004016109fa9061554c565b6001600160a01b03811661127b57600080fd5b60ff80546001600160a01b0319166001600160a01b0392909216919091179055565b60c9546001600160a01b031633146112c75760405162461bcd60e51b81526004016109fa9061554c565b6001600160a01b0382166113055760405162461bcd60e51b815260206004820152600560248201526405354213d360dc1b60448201526064016109fa565b6040805160a0810182526001600160a01b03808516825283811660208084019182526000848601818152600160608701818152608088018281526101028054865261010d909652988420975188549088166001600160a01b03199182161789559551918801805492909716919095161790945592516002850155905160039093018054945115156101000261ff00199415159490941661ffff1990951694909417929092179092558054916113b983615844565b91905055505050565b6000306001600160a01b037f000000000000000000000000000000000000000000000000000000000000000016146114625760405162461bcd60e51b815260206004820152603860248201527f555550535570677261646561626c653a206d757374206e6f742062652063616c60448201527f6c6564207468726f7567682064656c656761746563616c6c000000000000000060648201526084016109fa565b50600080516020615a0a83398151915290565b336000908152610109602052604090205460ff16806114ad5750336114a260c9546001600160a01b031690565b6001600160a01b0316145b6114b657600080fd5b60975460ff16156114d95760405162461bcd60e51b81526004016109fa90615710565b60008281526101036020526040902054811061151d5760405162461bcd60e51b81526020600482015260036024820152624e2f4160e81b60448201526064016109fa565b600082815261010b6020908152604080832084845290915290206003810154600160e81b900460ff16156115825760405162461bcd60e51b815260206004820152600c60248201526b1bdc99195c8810db1bdcd95960a21b60448201526064016109fa565b610ad883836139fa565b60c9546001600160a01b031633146115b65760405162461bcd60e51b81526004016109fa9061554c565b600084815261010b6020908152604080832086845290915290206003810154600160e81b900460ff166001146116205760405162461bcd60e51b815260206004820152600f60248201526e6f72646572206e6f7420636c6f736560881b60448201526064016109fa565b6001810180546001600160801b038581166001600160801b0319928316811790935560028401805491861691909216811790915560408051888152602081018890529081019290925260608201527f9504a3c65fecc974a213082b8811db10a7d148699b465b740f8235949809cec89060800160405180910390a15050505050565b60c9546001600160a01b031633146116cc5760405162461bcd60e51b81526004016109fa9061554c565b6116d66000613c9d565b565b60006116e46001613cef565b905080156116fc576000805461ff0019166101001790555b60001960fd5561271060fb55611710613d7c565b611718613dab565b611720613dda565b8015610e8b576000805461ff0019169055604051600181527f7f26b83ff96e1f2b6a682f133852f6798a09c465da95921460cefb38474024989060200160405180910390a150565b60c9546001600160a01b031633146117925760405162461bcd60e51b81526004016109fa9061554c565b600083815261010d6020908152604091829020600381018054851515610100810261ff001989151590811661ffff199094169390931717909255845188815293840152928201929092527ffaefe3fbd140a9bd4c155448fa8aac0058e7d43df968dfee8932aa0c0ebb0ba8906060015b60405180910390a150505050565b60975460ff16156118335760405162461bcd60e51b81526004016109fa90615710565b61010654826001600160801b03161015801561185b575061010754836001600160801b031610155b6118955760405162461bcd60e51b815260206004820152600b60248201526a078dad2dca8ded6cadca8f60ab1b60448201526064016109fa565b600084815261010d60209081526040808320815160a08101835281546001600160a01b0390811680835260018401549091168286015260028301548285015260039092015460ff808216151560608401526101009091041615156080820152825163313ce56760e01b81529251909493919263313ce5679260048083019391928290030181865afa15801561192e573d6000803e3d6000fd5b505050506040513d601f19601f820116820180604052508101906119529190615581565b9050600061010060009054906101000a90046001600160a01b03166001600160a01b031663313ce5676040518163ffffffff1660e01b8152600401602060405180830381865afa1580156119aa573d6000803e3d6000fd5b505050506040513d601f19601f820116820180604052508101906119ce9190615581565b905060006101085483836119e2919061585d565b6001600160801b03166119f591906155b0565b611a0090600a6156ab565b611a136001600160401b03871689615815565b6001600160801b0316611a2691906156b7565b9050856001600160801b03168111611a505760405162461bcd60e51b81526004016109fa906157d2565b611103886001338a89868c613e01565b60975460ff1615611a835760405162461bcd60e51b81526004016109fa90615710565b600082815261010360205260409020548110611ac75760405162461bcd60e51b81526020600482015260036024820152624e2f4160e81b60448201526064016109fa565b600082815261010b6020908152604080832084845282529182902082516101608101845281546001600160a01b0316815260018201546001600160801b0380821694830194909452600160801b90819004841694820194909452600282015480841660608301529390930490911660808301526003015463ffffffff811660a08301526001600160401b036401000000008204811660c0840152600160601b8204811660e0840152600160a01b82041661010083015260ff600160e01b82048116610120840152600160e81b90910416610140820181905215611bdd5760405162461bcd60e51b815260206004820152600e60248201526d37b93232b9103737ba1037b832b760911b60448201526064016109fa565b80516001600160a01b031633146115825760405162461bcd60e51b815260206004820152600a6024820152692bb937b733902ab9b2b960b11b60448201526064016109fa565b60975460ff1615611c465760405162461bcd60e51b81526004016109fa90615710565b600081815261010460209081526040808320338452909152812054905b81811015610ad857600083815261010c60209081526040808320338452825280832084845282528083205486845261010b8352818420818552835281842082516101608101845281546001600160a01b0316815260018201546001600160801b0380821696830196909652600160801b908190048616948201949094526002820154808616606083015293909304909316608083015260039092015463ffffffff811660a08301526001600160401b036401000000008204811660c0840152600160601b8204811660e0840152600160a01b82041661010083015260ff600160e01b82048116610120840152600160e81b909104166101408201819052919290919003611e015761014081015160ff1615611db15760405162461bcd60e51b815260206004820152600e60248201526d37b93232b9103737ba1037b832b760911b60448201526064016109fa565b80516001600160a01b03163314611df75760405162461bcd60e51b815260206004820152600a6024820152692bb937b733902ab9b2b960b11b60448201526064016109fa565b611e0185836139fa565b50508080611e0e90615844565b915050611c63565b336000908152610109602052604090205460ff1680611e4e575033611e4360c9546001600160a01b031690565b6001600160a01b0316145b611e5757600080fd5b60975460ff1615611e7a5760405162461bcd60e51b81526004016109fa90615710565b600084815261010360205260409020548310611eca5760405162461bcd60e51b815260206004820152600f60248201526e125b9d985b1a59081bdc99195c9259608a1b60448201526064016109fa565b600084815261010b6020908152604080832086845290915290206003810154600160e81b900460ff1615611f315760405162461bcd60e51b815260206004820152600e60248201526d27b93232b9103737ba1037b832b760911b60448201526064016109fa565b6003810154600160e01b900460ff16600003611fba576001600160801b038316158015611f6757506000826001600160801b0316115b611faa5760405162461bcd60e51b8152602060048201526014602482015273125b9d985b1a59081bdc99195c8c081a5b9c1d5d60621b60448201526064016109fa565b611fb5858584614348565b61203e565b6003810154600160e01b900460ff1660010361203e576000836001600160801b0316118015611ff057506001600160801b038216155b6120335760405162461bcd60e51b8152602060048201526014602482015273125b9d985b1a59081bdc99195c8c481a5b9c1d5d60621b60448201526064016109fa565b61203e8585856146a4565b5050505050565b60c9546001600160a01b0316331461206f5760405162461bcd60e51b81526004016109fa9061554c565b6001600160a01b0388166120ad5760405162461bcd60e51b815260206004820152600560248201526405250213d360dc1b60448201526064016109fa565b6001600160a01b0387166120eb5760405162461bcd60e51b815260206004820152600560248201526405343213d360dc1b60448201526064016109fa565b6001600160a01b03861661212a5760405162461bcd60e51b81526020600482015260066024820152650555342213d360d41b60448201526064016109fa565b60ff80546001600160a01b03199081166001600160a01b039a8b161790915561010080548216988a169890981790975561010180549097169590971694909417909455610106919091556101075560fe9190915560fc5561010855565b60c9546001600160a01b031633146121b15760405162461bcd60e51b81526004016109fa9061554c565b6001600160a01b0316600090815261010960205260409020805460ff19166001179055565b60c9546001600160a01b031633146122005760405162461bcd60e51b81526004016109fa9061554c565b6001600160801b03918216610106551661010755565b60c9546001600160a01b031633146122405760405162461bcd60e51b81526004016109fa9061554c565b6001600160a01b03811661227f5760405162461bcd60e51b81526004016109fa90602080825260049082015263041213d360e41b604082015260600190565b600091825261010d602052604090912060010180546001600160a01b0319166001600160a01b03909216919091179055565b60c9546001600160a01b031633146122db5760405162461bcd60e51b81526004016109fa9061554c565b6001600160a01b0381166122ee57600080fd5b61010180546001600160a01b0319166001600160a01b0392909216919091179055565b60c9546001600160a01b0316331461233b5760405162461bcd60e51b81526004016109fa9061554c565b6001600160a01b0381166123a05760405162461bcd60e51b815260206004820152602660248201527f4f776e61626c653a206e6577206f776e657220697320746865207a65726f206160448201526564647265737360d01b60648201526084016109fa565b610e8b81613c9d565b6000828152610104602090815260408083206001600160a01b0385168452909152902054606090806001600160401b038111156123e8576123e86151e3565b60405190808252806020026020018201604052801561246f57816020015b604080516101608101825260008082526020808301829052928201819052606082018190526080820181905260a0820181905260c0820181905260e082018190526101008201819052610120820181905261014082015282526000199092019101816124065790505b50915060005b818110156125a357600085815261010b6020908152604080832061010c83528184206001600160a01b03808a1686529084528285208686528452828520548552908352928190208151610160810183528154909416845260018101546001600160801b0380821694860194909452600160801b90819004841692850192909252600281015480841660608601529190910490911660808301526003015463ffffffff811660a08301526001600160401b036401000000008204811660c0840152600160601b8204811660e0840152600160a01b82041661010083015260ff600160e01b82048116610120840152600160e81b90910416610140820152835184908390811061258557612585615885565b6020026020010181905250808061259b90615844565b915050612475565b505092915050565b6040516001600160a01b038316602482015260448101829052610ad890849063a9059cbb60e01b906064015b60408051601f198184030181529190526020810180516001600160e01b03166001600160e01b031990931692909217909152614b3d565b600085815261010d6020908152604091829020825160a08101845281546001600160a01b039081168252600180840154909116938201939093526002820154938101939093526003015460ff8082161515606085018190526101009092041615156080840152146126aa5760405162461bcd60e51b81526004016109fa906020808252600490820152634e2f4d4560e01b604082015260600190565b600081600001516001600160a01b031663313ce5676040518163ffffffff1660e01b8152600401602060405180830381865afa1580156126ee573d6000803e3d6000fd5b505050506040513d601f19601f820116820180604052508101906127129190615581565b9050600061010060009054906101000a90046001600160a01b03166001600160a01b031663313ce5676040518163ffffffff1660e01b8152600401602060405180830381865afa15801561276a573d6000803e3d6000fd5b505050506040513d601f19601f8201168201806040525081019061278e9190615581565b905060006101085483836127a291906155b0565b6127ac91906155b0565b6127b790600a6156ab565b6127ca6001600160401b03871688615815565b6001600160801b03166127dd91906156b7565b9050612807333060fe54846127f291906156f8565b610100546001600160a01b0316929190614c0f565b60ff5460fe5461010054612829926001600160a01b03918216929116906125ab565b604051806101600160405280886001600160a01b03168152602001826001600160801b0316815260200160006001600160801b03168152602001876001600160801b03168152602001876001600160801b0316815260200161010360008c81526020019081526020016000205463ffffffff168152602001866001600160401b03168152602001426001600160401b0316815260200160006001600160401b031681526020018960ff168152602001600060ff1681525061010b60008b8152602001908152602001600020600061010360008d815260200190815260200160002054815260200190815260200160002060008201518160000160006101000a8154816001600160a01b0302191690836001600160a01b0316021790555060208201518160010160006101000a8154816001600160801b0302191690836001600160801b0316021790555060408201518160010160106101000a8154816001600160801b0302191690836001600160801b0316021790555060608201518160020160006101000a8154816001600160801b0302191690836001600160801b0316021790555060808201518160020160106101000a8154816001600160801b0302191690836001600160801b0316021790555060a08201518160030160006101000a81548163ffffffff021916908363ffffffff16021790555060c08201518160030160046101000a8154816001600160401b0302191690836001600160401b0316021790555060e082015181600301600c6101000a8154816001600160401b0302191690836001600160401b031602179055506101008201518160030160146101000a8154816001600160401b0302191690836001600160401b0316021790555061012082015181600301601c6101000a81548160ff021916908360ff16021790555061014082015181600301601d6101000a81548160ff021916908360ff16021790555090505061010360008a81526020019081526020016000205461010c60008b81526020019081526020016000206000896001600160a01b03166001600160a01b03168152602001908152602001600020600061010460008d815260200190815260200160002060008b6001600160a01b03166001600160a01b0316815260200190815260200160002054815260200190815260200160002081905550866001600160a01b03168860ff168a600080516020615a5183398151915261010360008e8152602001908152602001600020548560008c8d8d604051612bd39695949392919061589b565b60405180910390a46000898152610104602090815260408083206001600160a01b038b1684529091528120805491612c0a83615844565b9091555050600089815261010360205260408120805491612c2a83615844565b9190505550505050505050505050565b600085815261010d6020908152604091829020825160a08101845281546001600160a01b039081168252600180840154909116938201939093526002820154938101939093526003015460ff808216151560608501526101009091041615156080830181905214612cd65760405162461bcd60e51b81526004016109fa906020808252600490820152634e2f424560e01b604082015260600190565b600081600001516001600160a01b031663313ce5676040518163ffffffff1660e01b8152600401602060405180830381865afa158015612d1a573d6000803e3d6000fd5b505050506040513d601f19601f82011682018060405250810190612d3e9190615581565b9050600061010060009054906101000a90046001600160a01b03166001600160a01b031663313ce5676040518163ffffffff1660e01b8152600401602060405180830381865afa158015612d96573d6000803e3d6000fd5b505050506040513d601f19601f82011682018060405250810190612dba9190615581565b90506000610108548383612dce91906155b0565b612dd891906155b0565b612de390600a6156ab565b612df66001600160401b03871688615815565b6001600160801b0316612e0991906156b7565b8451909150612e2c906001600160a01b031688306001600160801b038a16614c0f565b60fe5461010054612e4c916001600160a01b039091169033903090614c0f565b60ff5460fe5461010054612e6e926001600160a01b03918216929116906125ab565b604051806101600160405280886001600160a01b03168152602001826001600160801b03168152602001826001600160801b03168152602001876001600160801b0316815260200160006001600160801b0316815260200161010360008c81526020019081526020016000205463ffffffff168152602001866001600160401b03168152602001426001600160401b0316815260200160006001600160401b031681526020018960ff168152602001600060ff1681525061010b60008b8152602001908152602001600020600061010360008d815260200190815260200160002054815260200190815260200160002060008201518160000160006101000a8154816001600160a01b0302191690836001600160a01b0316021790555060208201518160010160006101000a8154816001600160801b0302191690836001600160801b0316021790555060408201518160010160106101000a8154816001600160801b0302191690836001600160801b0316021790555060608201518160020160006101000a8154816001600160801b0302191690836001600160801b0316021790555060808201518160020160106101000a8154816001600160801b0302191690836001600160801b0316021790555060a08201518160030160006101000a81548163ffffffff021916908363ffffffff16021790555060c08201518160030160046101000a8154816001600160401b0302191690836001600160401b0316021790555060e082015181600301600c6101000a8154816001600160401b0302191690836001600160401b031602179055506101008201518160030160146101000a8154816001600160401b0302191690836001600160401b0316021790555061012082015181600301601c6101000a81548160ff021916908360ff16021790555061014082015181600301601d6101000a81548160ff021916908360ff16021790555090505061010360008a81526020019081526020016000205461010c60008b81526020019081526020016000206000896001600160a01b03166001600160a01b03168152602001908152602001600020600061010460008d815260200190815260200160002060008b6001600160a01b03166001600160a01b0316815260200190815260200160002054815260200190815260200160002081905550866001600160a01b03168860ff168a600080516020615a5183398151915261010360008e81526020019081526020016000205485868c60008d604051612bd396959493929190958652602086019490945260408501929092526001600160801b0316606084015260808301526001600160401b031660a082015260c00190565b60c9546001600160a01b03163314610e8b5760405162461bcd60e51b81526004016109fa9061554c565b7f4910fdfa16fed3260ed0e7147f7cc6da11a60208b5b9406d12a635614ffd91435460ff16156132aa57610ad883614c47565b826001600160a01b03166352d1902d6040518163ffffffff1660e01b8152600401602060405180830381865afa925050508015613304575060408051601f3d908101601f1916820190925261330191810190615581565b60015b6133675760405162461bcd60e51b815260206004820152602e60248201527f45524331393637557067726164653a206e657720696d706c656d656e7461746960448201526d6f6e206973206e6f74205555505360901b60648201526084016109fa565b600080516020615a0a83398151915281146133d65760405162461bcd60e51b815260206004820152602960248201527f45524331393637557067726164653a20756e737570706f727465642070726f786044820152681a58589b195555525160ba1b60648201526084016109fa565b50610ad8838383614ce3565b600086815261010d6020908152604091829020825160a08101845281546001600160a01b039081168252600180840154909116938201939093526002820154938101939093526003015460ff80821615156060850181905261010090920416151560808401521461347e5760405162461bcd60e51b81526004016109fa906020808252600490820152634e2f4d4560e01b604082015260600190565b600081600001516001600160a01b031663313ce5676040518163ffffffff1660e01b8152600401602060405180830381865afa1580156134c2573d6000803e3d6000fd5b505050506040513d601f19601f820116820180604052508101906134e69190615581565b9050600061010060009054906101000a90046001600160a01b03166001600160a01b031663313ce5676040518163ffffffff1660e01b8152600401602060405180830381865afa15801561353e573d6000803e3d6000fd5b505050506040513d601f19601f820116820180604052508101906135629190615581565b9050600061010854838361357691906155b0565b61358091906155b0565b61358b90600a6156ab565b61359e6001600160401b03881689615815565b6001600160801b03166135b191906156b7565b90506135c6333060fe54846127f291906156f8565b60ff5460fe54610100546135e8926001600160a01b03918216929116906125ab565b604051806101600160405280896001600160a01b03168152602001826001600160801b0316815260200160006001600160801b03168152602001886001600160801b03168152602001866001600160801b0316815260200161010360008d81526020019081526020016000205463ffffffff168152602001876001600160401b03168152602001426001600160401b0316815260200160006001600160401b031681526020018a60ff168152602001600060ff1681525061010b60008c8152602001908152602001600020600061010360008e815260200190815260200160002054815260200190815260200160002060008201518160000160006101000a8154816001600160a01b0302191690836001600160a01b0316021790555060208201518160010160006101000a8154816001600160801b0302191690836001600160801b0316021790555060408201518160010160106101000a8154816001600160801b0302191690836001600160801b0316021790555060608201518160020160006101000a8154816001600160801b0302191690836001600160801b0316021790555060808201518160020160106101000a8154816001600160801b0302191690836001600160801b0316021790555060a08201518160030160006101000a81548163ffffffff021916908363ffffffff16021790555060c08201518160030160046101000a8154816001600160401b0302191690836001600160401b0316021790555060e082015181600301600c6101000a8154816001600160401b0302191690836001600160401b031602179055506101008201518160030160146101000a8154816001600160401b0302191690836001600160401b0316021790555061012082015181600301601c6101000a81548160ff021916908360ff16021790555061014082015181600301601d6101000a81548160ff021916908360ff16021790555090505061010360008b81526020019081526020016000205461010c60008c815260200190815260200160002060008a6001600160a01b03166001600160a01b03168152602001908152602001600020600061010460008e815260200190815260200160002060008c6001600160a01b03166001600160a01b0316815260200190815260200160002054815260200190815260200160002081905550876001600160a01b03168960ff168b600080516020615a5183398151915261010360008f8152602001908152602001600020548560008d8c8e6040516139929695949392919061589b565b60405180910390a460008a8152610104602090815260408083206001600160a01b038c16845290915281208054916139c983615844565b909155505060008a8152610103602052604081208054916139e983615844565b919050555050505050505050505050565b600082815261010b60209081526040808320848452825280832085845261010d8352818420825160a08101845281546001600160a01b0390811682526001830154169481019490945260028101549284019290925260039182015460ff8082161515606086015261010090910481161515608085015291810180546001600160401b034216600160a01b0269ff00ffffffffffffffff60a01b1990911617600160e91b17908190559093600160e01b9091049091169003613c1d57610100546040516370a0823160e01b81523060048201526000916001600160a01b0316906370a0823190602401602060405180830381865afa158015613aff573d6000803e3d6000fd5b505050506040513d601f19601f82011682018060405250810190613b239190615581565b60018401549091506001600160801b03168110613b6b578254600184015461010054613b66926001600160a01b03918216929116906001600160801b03166125ab565b613c17565b6101015460018401546001600160a01b03909116906338a0405c90613b9a9084906001600160801b03166155b0565b6040518263ffffffff1660e01b8152600401613bb891815260200190565b600060405180830381600087803b158015613bd257600080fd5b505af1158015613be6573d6000803e3d6000fd5b50508454600186015461010054613c1794506001600160a01b039081169350909116906001600160801b03166125ab565b50613c5d565b6003820154600160e01b900460ff16600103613c5d57815460028301548251613c5d926001600160a01b03918216929116906001600160801b03166125ab565b604080518581526020810185905233918101919091527f077ca4340a6cea455b15142950ad88850f86de29ed8b1575bf1fd9835cb3b71590606001611802565b60c980546001600160a01b038381166001600160a01b0319831681179093556040519116919082907f8be0079c531659141344cd1fd0a4f28419497f9722a3daafe3b4186f6b6457e090600090a35050565b60008054610100900460ff1615613d36578160ff166001148015613d125750303b155b613d2e5760405162461bcd60e51b81526004016109fa906158d8565b506000919050565b60005460ff808416911610613d5d5760405162461bcd60e51b81526004016109fa906158d8565b506000805460ff191660ff92909216919091179055600190565b919050565b600054610100900460ff16613da35760405162461bcd60e51b81526004016109fa90615926565b6116d6614d08565b600054610100900460ff16613dd25760405162461bcd60e51b81526004016109fa90615926565b6116d6614d3b565b600054610100900460ff166116d65760405162461bcd60e51b81526004016109fa90615926565b600087815261010d6020908152604091829020825160a08101845281546001600160a01b039081168252600180840154909116938201939093526002820154938101939093526003015460ff808216151560608501526101009091041615156080830181905214613e9d5760405162461bcd60e51b81526004016109fa906020808252600490820152634e2f424560e01b604082015260600190565b8051613ebd906001600160a01b031687306001600160801b038916614c0f565b60fe5461010054613edd916001600160a01b039091169033903090614c0f565b60ff5460fe5461010054613eff926001600160a01b03918216929116906125ab565b604051806101600160405280876001600160a01b03168152602001846001600160801b03168152602001836001600160801b03168152602001866001600160801b0316815260200160006001600160801b0316815260200161010360008b81526020019081526020016000205463ffffffff168152602001856001600160401b03168152602001426001600160401b0316815260200160006001600160401b031681526020018860ff168152602001600060ff1681525061010b60008a8152602001908152602001600020600061010360008c815260200190815260200160002054815260200190815260200160002060008201518160000160006101000a8154816001600160a01b0302191690836001600160a01b0316021790555060208201518160010160006101000a8154816001600160801b0302191690836001600160801b0316021790555060408201518160010160106101000a8154816001600160801b0302191690836001600160801b0316021790555060608201518160020160006101000a8154816001600160801b0302191690836001600160801b0316021790555060808201518160020160106101000a8154816001600160801b0302191690836001600160801b0316021790555060a08201518160030160006101000a81548163ffffffff021916908363ffffffff16021790555060c08201518160030160046101000a8154816001600160401b0302191690836001600160401b0316021790555060e082015181600301600c6101000a8154816001600160401b0302191690836001600160401b031602179055506101008201518160030160146101000a8154816001600160401b0302191690836001600160401b0316021790555061012082015181600301601c6101000a81548160ff021916908360ff16021790555061014082015181600301601d6101000a81548160ff021916908360ff16021790555090505061010360008981526020019081526020016000205461010c60008a81526020019081526020016000206000886001600160a01b03166001600160a01b03168152602001908152602001600020600061010460008c815260200190815260200160002060008a6001600160a01b03166001600160a01b0316815260200190815260200160002054815260200190815260200160002081905550856001600160a01b03168760ff1689600080516020615a5183398151915261010360008d81526020019081526020016000205487878b60008c6040516142e2969594939291909586526001600160801b03948516602087015292841660408601529216606084015260808301919091526001600160401b031660a082015260c00190565b60405180910390a46000888152610104602090815260408083206001600160a01b038a168452909152812080549161431983615844565b909155505060008881526101036020526040812080549161433983615844565b91905055505050505050505050565b6000816001600160801b0316116143865760405162461bcd60e51b815260206004820152600260248201526103c360f41b60448201526064016109fa565b600083815261010b60209081526040808320858452825280832086845261010d83528184208054835163313ce56760e01b815293519295919491936001600160a01b039091169263313ce567926004808401939192918290030181865afa1580156143f5573d6000803e3d6000fd5b505050506040513d601f19601f820116820180604052508101906144199190615581565b82546001600160a01b0316600090815261010a602052604081205460038601546001870154939450909261446791600160e01b900460ff16906001600160801b039081169089168587610add565b9150506001811515146144af5760405162461bcd60e51b815260206004820152601060248201526f65786365656420746f6c2072616e676560801b60448201526064016109fa565b60028501546001600160801b03600160801b9091048116908716108015906144e8575060028501546001600160801b0390811690871611155b61452c5760405162461bcd60e51b815260206004820152601560248201527465786365656420736c6970706167652072616e676560581b60448201526064016109fa565b600385018054600160e81b69ff00ffffffffffffffff60a01b19909116600160a01b426001600160401b03160217179055600280860180546001600160801b0319166001600160801b038981169190911790915560018701549186018054929091169160009061459d9084906156f8565b9091555050600185015461010580546001600160801b03909216916000906145c69084906156f8565b90915550508354855460028701546040516340c10f1960e01b81526001600160a01b0392831660048201526001600160801b0390911660248201529116906340c10f1990604401600060405180830381600087803b15801561462757600080fd5b505af115801561463b573d6000803e3d6000fd5b505086546001880154604080516001600160801b039283168152918b1660208301526001600160a01b0390921693503392508b917fb546538a2a185850f84d1e7ebec7160dcb2778b822b43de7231a55a5b676a92b910160405180910390a45050505050505050565b6000816001600160801b0316116146e25760405162461bcd60e51b815260206004820152600260248201526103c360f41b60448201526064016109fa565b600083815261010d6020908152604080832061010b835281842086855283528184208154835163313ce56760e01b815293519295919491936001600160a01b039091169263313ce567926004808401939192918290030181865afa15801561474e573d6000803e3d6000fd5b505050506040513d601f19601f820116820180604052508101906147729190615581565b83546001600160a01b0316600090815261010a60205260408120546003850154600286015493945090926147bf91600160e01b900460ff16906001600160801b0389811691168587610add565b9150506001811515146148075760405162461bcd60e51b815260206004820152601060248201526f65786365656420746f6c2072616e676560801b60448201526064016109fa565b60018401546001600160801b03600160801b909104811690871610801590614840575060018401546001600160801b0390811690871611155b6148845760405162461bcd60e51b815260206004820152601560248201527465786365656420736c6970706167652072616e676560581b60448201526064016109fa565b600384018054600160e81b69ff00ffffffffffffffff60a01b19909116600160a01b426001600160401b031602171790556001840180546001600160801b0319166001600160801b0388169081179091556002860180546000906148e99084906156f8565b9091555050600184015461010580546001600160801b03909216916000906149129084906156f8565b909155505084546002850154604051630852cd8d60e31b81526001600160801b0390911660048201526001600160a01b03909116906342966c6890602401600060405180830381600087803b15801561496a57600080fd5b505af115801561497e573d6000803e3d6000fd5b5050610100546040516370a0823160e01b8152306004820152600093506001600160a01b0390911691506370a0823190602401602060405180830381865afa1580156149ce573d6000803e3d6000fd5b505050506040513d601f19601f820116820180604052508101906149f29190615581565b9050866001600160801b03168110614a35578454600186015461010054614a30926001600160a01b03918216929116906001600160801b03166125ab565b614ad7565b610101546001600160a01b03166338a0405c614a5a836001600160801b038b166155b0565b6040518263ffffffff1660e01b8152600401614a7891815260200190565b600060405180830381600087803b158015614a9257600080fd5b505af1158015614aa6573d6000803e3d6000fd5b50508654600188015461010054614ad794506001600160a01b039081169350909116906001600160801b03166125ab565b84546002860154604080516001600160801b03808c16825290921660208301526001600160a01b039092169133918c917f33c39c79c6f36a55fb8690497f208e1df6b7588326eb8ff086848618071ae696910160405180910390a4505050505050505050565b6000614b92826040518060400160405280602081526020017f5361666545524332303a206c6f772d6c6576656c2063616c6c206661696c6564815250856001600160a01b0316614d6b9092919063ffffffff16565b805190915015610ad85780806020019051810190614bb09190615971565b610ad85760405162461bcd60e51b815260206004820152602a60248201527f5361666545524332303a204552433230206f7065726174696f6e20646964206e6044820152691bdd081cdd58d8d9595960b21b60648201526084016109fa565b6040516001600160a01b0380851660248301528316604482015260648101829052610da99085906323b872dd60e01b906084016125d7565b6001600160a01b0381163b614cb45760405162461bcd60e51b815260206004820152602d60248201527f455243313936373a206e657720696d706c656d656e746174696f6e206973206e60448201526c1bdd08184818dbdb9d1c9858dd609a1b60648201526084016109fa565b600080516020615a0a83398151915280546001600160a01b0319166001600160a01b0392909216919091179055565b614cec83614d84565b600082511180614cf95750805b15610ad857610da98383614dc4565b600054610100900460ff16614d2f5760405162461bcd60e51b81526004016109fa90615926565b6097805460ff19169055565b600054610100900460ff16614d625760405162461bcd60e51b81526004016109fa90615926565b6116d633613c9d565b6060614d7a8484600085614eb8565b90505b9392505050565b614d8d81614c47565b6040516001600160a01b038216907fbc7cd75a20ee27fd9adebab32041f755214dbc6bffa90cc0225b39da2e5c2d3b90600090a250565b60606001600160a01b0383163b614e2c5760405162461bcd60e51b815260206004820152602660248201527f416464726573733a2064656c65676174652063616c6c20746f206e6f6e2d636f6044820152651b9d1c9858dd60d21b60648201526084016109fa565b600080846001600160a01b031684604051614e4791906159ba565b600060405180830381855af49150503d8060008114614e82576040519150601f19603f3d011682016040523d82523d6000602084013e614e87565b606091505b5091509150614eaf8282604051806060016040528060278152602001615a2a60279139614fe9565b95945050505050565b606082471015614f195760405162461bcd60e51b815260206004820152602660248201527f416464726573733a20696e73756666696369656e742062616c616e636520666f6044820152651c8818d85b1b60d21b60648201526084016109fa565b6001600160a01b0385163b614f705760405162461bcd60e51b815260206004820152601d60248201527f416464726573733a2063616c6c20746f206e6f6e2d636f6e747261637400000060448201526064016109fa565b600080866001600160a01b03168587604051614f8c91906159ba565b60006040518083038185875af1925050503d8060008114614fc9576040519150601f19603f3d011682016040523d82523d6000602084013e614fce565b606091505b5091509150614fde828286614fe9565b979650505050505050565b60608315614ff8575081614d7d565b8251156150085782518084602001fd5b8160405162461bcd60e51b81526004016109fa91906159d6565b80356001600160a01b0381168114613d7757600080fd5b6000806040838503121561504c57600080fd5b61505583615022565b946020939093013593505050565b60008060006060848603121561507857600080fd5b61508184615022565b92506020840135915061509660408501615022565b90509250925092565b600080600080600060a086880312156150b757600080fd5b505083359560208501359550604085013594606081013594506080013592509050565b6000602082840312156150ec57600080fd5b5035919050565b6000806040838503121561510657600080fd5b8235915061511660208401615022565b90509250929050565b80356001600160801b0381168114613d7757600080fd5b80356001600160401b0381168114613d7757600080fd5b6000806000806080858703121561516357600080fd5b84359350602085013560ff8116811461517b57600080fd5b92506151896040860161511f565b915061519760608601615136565b905092959194509250565b6000602082840312156151b457600080fd5b614d7d82615022565b600080600080608085870312156151d357600080fd5b8435935061517b6020860161511f565b634e487b7160e01b600052604160045260246000fd5b6000806040838503121561520c57600080fd5b61521583615022565b915060208301356001600160401b038082111561523157600080fd5b818501915085601f83011261524557600080fd5b813581811115615257576152576151e3565b604051601f8201601f19908116603f0116810190838211818310171561527f5761527f6151e3565b8160405282815288602084870101111561529857600080fd5b8260208601602083013760006020848301015280955050505050509250929050565b600080604083850312156152cd57600080fd5b6152d683615022565b915061511660208401615022565b600080604083850312156152f757600080fd5b50508035926020909101359150565b60008060006060848603121561531b57600080fd5b8335925061532b60208501615022565b9150604084013590509250925092565b6000806000806080858703121561535157600080fd5b84359350602085013592506153686040860161511f565b91506151976060860161511f565b8015158114610e8b57600080fd5b60008060006060848603121561539957600080fd5b8335925060208401356153ab81615376565b915060408401356153bb81615376565b809150509250925092565b600080600080600080600080610100898b0312156153e357600080fd5b6153ec89615022565b97506153fa60208a01615022565b965061540860408a01615022565b979a96995096976060810135975060808101359660a0820135965060c0820135955060e0909101359350915050565b6000806040838503121561544a57600080fd5b6154538361511f565b91506151166020840161511f565b602080825282518282018190526000919060409081850190868401855b8281101561553f57815180516001600160a01b03168552868101516001600160801b0390811688870152868201518116878701526060808301518216908701526080808301519091169086015260a08082015163ffffffff169086015260c0808201516001600160401b039081169187019190915260e08083015182169087015261010080830151909116908601526101208082015160ff90811691870191909152610140918201511690850152610160909301929085019060010161547e565b5091979650505050505050565b6020808252818101527f4f776e61626c653a2063616c6c6572206973206e6f7420746865206f776e6572604082015260600190565b60006020828403121561559357600080fd5b5051919050565b634e487b7160e01b600052601160045260246000fd5b6000828210156155c2576155c261559a565b500390565b600181815b808511156156025781600019048211156155e8576155e861559a565b808516156155f557918102915b93841c93908002906155cc565b509250929050565b60008261561957506001610cd7565b8161562657506000610cd7565b816001811461563c576002811461564657615662565b6001915050610cd7565b60ff8411156156575761565761559a565b50506001821b610cd7565b5060208310610133831016604e8410600b8410161715615685575081810a610cd7565b61568f83836155c7565b80600019048211156156a3576156a361559a565b029392505050565b6000614d7d838361560a565b60008160001904831182151516156156d1576156d161559a565b500290565b6000826156f357634e487b7160e01b600052601260045260246000fd5b500490565b6000821982111561570b5761570b61559a565b500190565b60208082526010908201526f14185d5cd8589b194e881c185d5cd95960821b604082015260600190565b6020808252602c908201527f46756e6374696f6e206d7573742062652063616c6c6564207468726f7567682060408201526b19195b1959d85d1958d85b1b60a21b606082015260800190565b6020808252602c908201527f46756e6374696f6e206d7573742062652063616c6c6564207468726f7567682060408201526b6163746976652070726f787960a01b606082015260800190565b60208082526023908201527f53796e506f6f6c3a20494e53554646494349454e545f4f55545055545f414d4f60408201526215539560ea1b606082015260800190565b60006001600160801b038083168185168183048111821515161561583b5761583b61559a565b02949350505050565b6000600182016158565761585661559a565b5060010190565b60006001600160801b038381169083168181101561587d5761587d61559a565b039392505050565b634e487b7160e01b600052603260045260246000fd5b958652602086019490945260408501929092526001600160801b0390811660608501521660808301526001600160401b031660a082015260c00190565b6020808252602e908201527f496e697469616c697a61626c653a20636f6e747261637420697320616c72656160408201526d191e481a5b9a5d1a585b1a5e995960921b606082015260800190565b6020808252602b908201527f496e697469616c697a61626c653a20636f6e7472616374206973206e6f74206960408201526a6e697469616c697a696e6760a81b606082015260800190565b60006020828403121561598357600080fd5b8151614d7d81615376565b60005b838110156159a9578181015183820152602001615991565b83811115610da95750506000910152565b600082516159cc81846020870161598e565b9190910192915050565b60208152600082518060208401526159f581604085016020870161598e565b601f01601f1916919091016040019291505056fe360894a13ba1a3210667c828492db98dca3e2076cc3735a920a3ca505d382bbc416464726573733a206c6f772d6c6576656c2064656c65676174652063616c6c206661696c65644ef0ee66ebc7fa67c4975c32872d2a4f1a4143f6d8e75668668040441018630ea26469706673582212205a9b9549135c725b4080a41a5efb72db71361dfbe429daa971aae2c86dfe834064736f6c634300080f0033",
  "immutableReferences": {
    "685": [
      {
        "length": 32,
        "start": 3513
      },
      {
        "length": 32,
        "start": 3577
      },
      {
        "length": 32,
        "start": 4472
      },
      {
        "length": 32,
        "start": 4536
      },
      {
        "length": 32,
        "start": 5071
      }
    ]
  },
  "source": "// SPDX-License-Identifier: MIT\n\npragma solidity ^0.8.0;\n\nimport \"@openzeppelin/contracts-upgradeable/token/ERC20/utils/SafeERC20Upgradeable.sol\";\nimport \"@openzeppelin/contracts-upgradeable/proxy/utils/UUPSUpgradeable.sol\";\nimport \"@openzeppelin/contracts-upgradeable/token/ERC20/IERC20Upgradeable.sol\";\nimport \"@openzeppelin/contracts-upgradeable/access/OwnableUpgradeable.sol\";\nimport \"@openzeppelin/contracts-upgradeable/security/PausableUpgradeable.sol\";\nimport \"./interface/IAggregatorV3.sol\";\nimport \"./interface/ISynthetic.sol\";\nimport \"./interface/ISystemCoin.sol\";\nimport \"./interface/IUSBPool.sol\";\n\ncontract SyntheticPool is Initializable, UUPSUpgradeable, PausableUpgradeable, OwnableUpgradeable {\n\n    using SafeERC20Upgradeable for IERC20Upgradeable;\n    using SafeERC20Upgradeable for ISynthetic;\n    using SafeERC20Upgradeable for ISystemCoin;\n\n    uint256 internal BIPS_DIVISOR;                          // Constant 10000(denominator)\n    uint256 internal tolCloseMargin;\n    uint256 internal maxAmount;\n    uint256 internal txFee;\n    address internal reservePool;\n    ISystemCoin internal systemCoin;\n    IUSBPool internal USBPool;\n\n    uint256 internal poolLength;\n    mapping(uint256 => uint256) internal poolOrderLength;                                       // PoolId => orderLength\n    mapping(uint256 => mapping(address => uint256)) internal userOrderLength;                   // PoolId => userAddress => userOrderLength\n\n    uint256 internal totalTxAmount;\n    uint256 internal minSystemCoinTxAmount;                                                     // min system Coin amount for order\n    uint256 internal minSynTokenTxAmount;    \n    uint256 internal synPoolPriceDecimal;\n    mapping(address => bool) public authorized;\n    mapping(address => uint256) internal synPoolPrice;                                          // Pool price\n    mapping(uint256 => mapping(uint256 => OrderInfo)) public orderInfo;                         // PoolId => PoolOrderId => OrderInfo\n    mapping(uint256 => mapping(address => mapping(uint256 => uint256))) public userOrderId;     // PoolId => UserAddress => userOrderLength => PoolOrderId\n    mapping(uint256 => PoolInfo) public poolInfo;                                               // PoolId => PoolInfo\n\n    struct OrderInfo {\n        address account;\n        uint128 systemCoinAmount;       // System stable coin\n        uint128 minSystemCoinAmount;\n        uint128 synTokenAmount;\n        uint128 minSynTokenAmount;         // Synthetic token\n        uint32 orderId;\n        uint64 synTokenPrice;              // 8 decimals\n        uint64 openTime;\n        uint64 closeTime;\n        uint8 orderType;              // only accept 0/1, 0 = buy, 1 = sell\n        uint8 status;                    // 0 = open, 1 = close, 2 = cancel\n    }\n\n    struct PoolInfo {\n        ISynthetic syntheticToken;          // Synthetic stock token address\n        IAggregatorV3 oracleChainlink;      // oracle stock price(future usage to replace stockPrice variable)\n        uint256 txAmount;                   // Transaction amount\n        bool mintsEnabled;\n        bool burnsEnabled;\n    }\n\n    event SetEmergency(address indexed sender, uint256 emergencyStart);\n    event OpenOrder(uint256 indexed pid, uint256 indexed orderType, uint256 orderId, address indexed account, uint256 systemCoinAmount, uint256 minSystemCoinAmount, uint256 synTokenAmount, uint256 minSynTokenAmount, uint256 synTokenPrice);\n    event MintSynToken(uint256 indexed pid, address indexed sender, address indexed account, uint256 systemCoinAmount, uint256 synTokenAmount);\n    event BurnSynToken(uint256 indexed pid, address indexed sender, address indexed account, uint256 systemCoinAmount, uint256 synTokenAmount);\n    event CancelOrder(uint256 pid, uint256 orderId, address account);\n    event UpdateOrder(uint256 pid, uint256 orderId, uint256 systemCoinAmount, uint256 synTokenAmount);\n    event PoolsEnabled(uint256 pid, bool newMintsEnabled, bool newBurnsEnabled);\n\n    modifier onlyAuthorized() {\n        require(authorized[msg.sender] || owner() == msg.sender);\n        _;\n    }\n\n    modifier notZeroAddress(address inputAddress) {\n        require(inputAddress != address(0) , \"collateralVault : input zero address\");\n        _;\n    }\n\n    /******************************************* INITIAL SETUP START ******************************************/\n    // Init the contract. Can only be called by the owner. \n    function initContract(address _reservePool, address _systemCoin, address _USBPool, uint256 _minSystemCoinTxAmount, uint256 _minSynTokenTxAmount, uint256 _txFee, uint256 _tolCloseMargin, uint256 _synPoolPriceDecimal) external onlyOwner{\n        require(_reservePool != address(0),\"RP!=0\");\n        require(_systemCoin != address(0),\"SC!=0\");\n        require(_USBPool != address(0),\"USB!=0\");\n        reservePool = _reservePool;\n        systemCoin = ISystemCoin(_systemCoin);\n        USBPool = IUSBPool(_USBPool);\n        minSystemCoinTxAmount = _minSystemCoinTxAmount;\n        minSynTokenTxAmount = _minSynTokenTxAmount;\n        txFee = _txFee;\n        tolCloseMargin = _tolCloseMargin;\n        synPoolPriceDecimal = _synPoolPriceDecimal;\n    }\n\n    function add(address _synToken, address _oracle) external onlyOwner {\n        require(address(_synToken) != address(0), \"ST!=0\");\n        poolInfo[poolLength] = PoolInfo({\n            syntheticToken : ISynthetic(_synToken),\n            oracleChainlink : IAggregatorV3(_oracle), \n            txAmount : 0,\n            mintsEnabled : true,\n            burnsEnabled : true\n        });\n        poolLength++;\n    }\n\n    /****************************************** Synthetic CORE FUNCTION ******************************************/\n    \n    function openBuyOrder(uint256 pid, uint128 syntheticTokenAmount, uint128 _minSynTokenAmount, uint64 _synTokenPrice) whenNotPaused external {\n        require(syntheticTokenAmount > _minSynTokenAmount,\"SynPool: INSUFFICIENT_OUTPUT_AMOUNT\");\n\n        PoolInfo memory pool = poolInfo[pid];\n        uint256 synTokenDecimal = pool.syntheticToken.decimals();\n        uint256 systemCoinDecimal = systemCoin.decimals();\n        uint256 _systemCoinAmount = syntheticTokenAmount * _synTokenPrice * 10 ** (systemCoinDecimal - synTokenDecimal - synPoolPriceDecimal);\n        require(_systemCoinAmount >= minSystemCoinTxAmount && syntheticTokenAmount >= minSynTokenTxAmount, \"<minTokenTx\");\n\n        _openBuyOrder(pid, 0, msg.sender, syntheticTokenAmount, _synTokenPrice, _minSynTokenAmount);\n    }\n\n    function openSellOrder(uint256 pid, uint128 _synTokenAmount, uint128 _minSystemCoinAmount, uint64 _synTokenPrice) whenNotPaused external {\n        require(_minSystemCoinAmount >= minSystemCoinTxAmount && _synTokenAmount >= minSynTokenTxAmount, \"<minTokenTx\");\n        PoolInfo memory pool = poolInfo[pid];\n        uint128 synTokenDecimal = uint128(pool.syntheticToken.decimals());\n        uint128 systemCoinDecimal = uint128(systemCoin.decimals());\n        uint256 estSysCoinAmount = _synTokenAmount * _synTokenPrice * 10 ** (systemCoinDecimal -  synTokenDecimal - synPoolPriceDecimal);\n        require(estSysCoinAmount > _minSystemCoinAmount, \"SynPool: INSUFFICIENT_OUTPUT_AMOUNT\");\n        _openSellOrder(pid, 1, msg.sender, _synTokenAmount, _synTokenPrice, uint128(estSysCoinAmount), _minSystemCoinAmount);\n    }\n\n    function openLimitOrder(uint256 pid, uint8 orderType, uint128 _synTokenAmount, uint64 _synTokenPrice) whenNotPaused external {\n        require(orderType == 0 || orderType == 1, \"WrongOT\");\n        require(_synTokenAmount > 0 && _synTokenPrice > 0);\n        if(orderType == 0) {\n            _openBuyLimitOrder(pid, orderType, msg.sender, _synTokenAmount, _synTokenPrice);\n        } else if(orderType ==1) {\n            _openSellLimitOrder(pid, orderType, msg.sender, _synTokenAmount, _synTokenPrice);\n        }\n    }\n\n    function closeOrder(uint256 pid, uint256 _orderId, uint128 _systemCoinAmount, uint128 _synTokenAmount) onlyAuthorized whenNotPaused external {\n        require(_orderId < poolOrderLength[pid], \"Invalid orderId\");\n        OrderInfo storage order = orderInfo[pid][_orderId];\n        require(order.status == 0, \"Order not open\");\n\n        if(order.orderType == 0) {\n            require(_systemCoinAmount == 0 && _synTokenAmount > 0, \"Invalid order0 input\");\n            _mintSynToken(pid, _orderId, _synTokenAmount);\n        } else if(order.orderType == 1) {\n            require(_systemCoinAmount > 0 && _synTokenAmount == 0, \"Invalid order1 input\");\n            _burnSynToken(pid, _orderId, _systemCoinAmount);\n        }\n    }\n\n    function cancelOrder(uint256 pid, uint256 _orderId) whenNotPaused external {\n        require(_orderId < poolOrderLength[pid],\"N/A\");\n        OrderInfo memory order = orderInfo[pid][_orderId];\n        require(order.status == 0, \"order not open\");\n        require(msg.sender == order.account, \"Wrong User\");\n        _cancelOrder(pid, _orderId);\n    }\n\n    function cancelAllOrders(uint256 pid) whenNotPaused external {\n        uint256 _userOrderLength = userOrderLength[pid][msg.sender];\n        for (uint256 i = 0; i < _userOrderLength; i++) {\n            uint256 _userOrderId = userOrderId[pid][msg.sender][i];\n            OrderInfo memory order = orderInfo[pid][_userOrderId];\n            if (order.status == 0) {\n                require(order.status == 0, \"order not open\");\n                require(msg.sender == order.account, \"Wrong User\");\n                _cancelOrder(pid, _userOrderId);\n            }\n        }\n    }\n\n    function cancelOrderAuthorized(uint256 pid, uint256 _orderId) onlyAuthorized whenNotPaused external {\n        require(_orderId < poolOrderLength[pid],\"N/A\");\n        OrderInfo storage order = orderInfo[pid][_orderId];\n        require(order.status == 0, \"order Closed\");\n        _cancelOrder(pid, _orderId);\n    }\n\n    function _openBuyOrder(uint256 pid, uint8 orderType, address account, uint128 _synTokenAmount, uint64 _synTokenPrice, uint128 _minSynTokenAmount) internal{\n        PoolInfo memory pool = poolInfo[pid];\n        require(pool.mintsEnabled == true, \"N/ME\");\n        uint256 synTokenDecimal = pool.syntheticToken.decimals();\n        uint256 systemCoinDecimal = systemCoin.decimals();\n\n        uint256 _systemCoinAmount = _synTokenAmount * _synTokenPrice * 10 ** (systemCoinDecimal - synTokenDecimal - synPoolPriceDecimal);\n        systemCoin.safeTransferFrom(msg.sender, address(this), _systemCoinAmount + txFee);\n        systemCoin.safeTransfer(reservePool, txFee);\n\n        orderInfo[pid][poolOrderLength[pid]] = OrderInfo({\n            account: account,\n            systemCoinAmount: uint128(_systemCoinAmount),\n            minSystemCoinAmount: 0,\n            synTokenAmount: _synTokenAmount,\n            minSynTokenAmount: _minSynTokenAmount,\n            orderId: uint32(poolOrderLength[pid]),\n            synTokenPrice: _synTokenPrice,\n            openTime: uint64(block.timestamp),\n            closeTime: 0,\n            orderType: orderType,\n            status: 0\n        });\n        \n        userOrderId[pid][account][userOrderLength[pid][account]] = poolOrderLength[pid];\n        emit OpenOrder(pid, orderType, poolOrderLength[pid], account, _systemCoinAmount, 0, _synTokenAmount, _minSynTokenAmount, _synTokenPrice);\n\n        userOrderLength[pid][account]++;\n        poolOrderLength[pid]++;\n    }\n\n    function _openBuyLimitOrder(uint256 pid, uint8 orderType, address account, uint128 _synTokenAmount, uint64 _synTokenPrice) internal{\n        PoolInfo memory pool = poolInfo[pid];\n        require(pool.mintsEnabled == true, \"N/ME\");\n        uint256 synTokenDecimal = pool.syntheticToken.decimals();\n        uint256 systemCoinDecimal = systemCoin.decimals();\n\n        uint256 _systemCoinAmount = (_synTokenAmount * _synTokenPrice) * (10 ** (systemCoinDecimal - synTokenDecimal - synPoolPriceDecimal));\n        systemCoin.safeTransferFrom(msg.sender, address(this), _systemCoinAmount + txFee);\n        systemCoin.safeTransfer(reservePool, txFee);\n\n        orderInfo[pid][poolOrderLength[pid]] = OrderInfo({\n            account: account,\n            systemCoinAmount: uint128(_systemCoinAmount),\n            minSystemCoinAmount: 0,\n            synTokenAmount: _synTokenAmount,\n            minSynTokenAmount: _synTokenAmount,\n            orderId: uint32(poolOrderLength[pid]),\n            synTokenPrice: _synTokenPrice,\n            openTime: uint64(block.timestamp),\n            closeTime: 0,\n            orderType: orderType,\n            status: 0\n        });\n        \n        userOrderId[pid][account][userOrderLength[pid][account]] = poolOrderLength[pid];\n        emit OpenOrder(pid, orderType, poolOrderLength[pid], account, _systemCoinAmount, 0, _synTokenAmount, _synTokenAmount, _synTokenPrice);\n\n        userOrderLength[pid][account]++;\n        poolOrderLength[pid]++;\n    }\n\n    function _openSellOrder(uint256 pid, uint8 orderType, address account, uint128 _synTokenAmount, uint64 _synTokenPrice, uint128 _systemCoinAmount, uint128 _minSystemCoinAmount) internal{\n        PoolInfo memory pool = poolInfo[pid];\n        require(pool.burnsEnabled == true, \"N/BE\");\n        \n        pool.syntheticToken.safeTransferFrom(account, address(this), _synTokenAmount);\n        systemCoin.safeTransferFrom(msg.sender, address(this), txFee);\n        systemCoin.safeTransfer(reservePool, txFee);\n\n        orderInfo[pid][poolOrderLength[pid]] = OrderInfo({\n            account: account,\n            systemCoinAmount: _systemCoinAmount,\n            minSystemCoinAmount: _minSystemCoinAmount,\n            synTokenAmount: _synTokenAmount,\n            minSynTokenAmount: 0,\n            orderId: uint32(poolOrderLength[pid]),\n            synTokenPrice: _synTokenPrice,\n            openTime: uint64(block.timestamp),\n            closeTime: 0,\n            orderType: orderType,\n            status: 0\n        });\n\n        userOrderId[pid][account][userOrderLength[pid][account]] = poolOrderLength[pid];\n        emit OpenOrder(pid, orderType, poolOrderLength[pid], account, _systemCoinAmount, _minSystemCoinAmount, _synTokenAmount, 0, _synTokenPrice);\n\n        userOrderLength[pid][account]++;\n        poolOrderLength[pid]++;\n    }\n\n    function _openSellLimitOrder(uint256 pid, uint8 orderType, address account, uint128 _synTokenAmount, uint64 _synTokenPrice) internal{\n        PoolInfo memory pool = poolInfo[pid];\n        require(pool.burnsEnabled == true, \"N/BE\");\n        uint256 synTokenDecimal = pool.syntheticToken.decimals();\n        uint256 systemCoinDecimal = systemCoin.decimals();\n        uint256 systemCoinAmount = (_synTokenAmount * _synTokenPrice) * (10 ** (systemCoinDecimal - synTokenDecimal - synPoolPriceDecimal));\n\n        pool.syntheticToken.safeTransferFrom(account, address(this), _synTokenAmount);\n        systemCoin.safeTransferFrom(msg.sender, address(this), txFee);\n        systemCoin.safeTransfer(reservePool, txFee);\n\n        orderInfo[pid][poolOrderLength[pid]] = OrderInfo({\n            account: account,\n            systemCoinAmount: uint128(systemCoinAmount),\n            minSystemCoinAmount: uint128(systemCoinAmount),\n            synTokenAmount: _synTokenAmount,\n            minSynTokenAmount: 0,\n            synTokenPrice: _synTokenPrice,\n            orderId: uint32(poolOrderLength[pid]),\n            openTime: uint64(block.timestamp),\n            closeTime: 0,\n            orderType: orderType,\n            status: 0\n        });\n\n        userOrderId[pid][account][userOrderLength[pid][account]] = poolOrderLength[pid];\n        emit OpenOrder(pid, orderType, poolOrderLength[pid], account, systemCoinAmount, systemCoinAmount, _synTokenAmount, 0, _synTokenPrice);\n\n        userOrderLength[pid][account]++;\n        poolOrderLength[pid]++;\n    }\n\n    function _mintSynToken(uint256 pid, uint256 _orderId, uint128 inputSynTokenAmount) internal {\n        require(inputSynTokenAmount > 0, \"<0\");\n        OrderInfo storage order = orderInfo[pid][_orderId];\n        PoolInfo storage pool = poolInfo[pid];\n        uint256 synTokenDecimal = pool.syntheticToken.decimals();\n        uint256 syntheticPoolPrice = synPoolPrice[address(pool.syntheticToken)];\n        \n        (, bool validAmount) = verifyTol(order.orderType, order.systemCoinAmount, inputSynTokenAmount, syntheticPoolPrice, synTokenDecimal);\n        require(validAmount == true,\"exceed tol range\");\n        require(inputSynTokenAmount >= order.minSynTokenAmount && inputSynTokenAmount <= order.synTokenAmount,\"exceed slippage range\");\n\n        order.status = 1;\n        order.closeTime = uint64(block.timestamp);\n        order.synTokenAmount = inputSynTokenAmount;\n\n        pool.txAmount += order.systemCoinAmount;\n        totalTxAmount += order.systemCoinAmount;\n        pool.syntheticToken.mint(order.account, order.synTokenAmount);\n\n        emit MintSynToken(pid, msg.sender, order.account, order.systemCoinAmount ,inputSynTokenAmount);\n    }\n\n    function _burnSynToken(uint256 pid, uint256 _orderId, uint128 inputSystemCoinAmount) internal {\n        require(inputSystemCoinAmount > 0, \"<0\");\n        PoolInfo storage pool = poolInfo[pid];\n        OrderInfo storage order = orderInfo[pid][_orderId];\n        uint256 synTokenDecimal = pool.syntheticToken.decimals();\n        uint256 syntheticPoolPrice = synPoolPrice[address(pool.syntheticToken)];\n\n        (, bool validAmount) = verifyTol(order.orderType, inputSystemCoinAmount, order.synTokenAmount, syntheticPoolPrice, synTokenDecimal);\n        require(validAmount == true,\"exceed tol range\");\n        require(inputSystemCoinAmount >= order.minSystemCoinAmount && inputSystemCoinAmount<=order.systemCoinAmount, \"exceed slippage range\");\n\n        order.status = 1;\n        order.closeTime = uint64(block.timestamp);\n        order.systemCoinAmount = inputSystemCoinAmount;\n\n        pool.txAmount += order.systemCoinAmount;\n        totalTxAmount += order.systemCoinAmount;\n        pool.syntheticToken.burn(order.synTokenAmount);\n        \n        uint256 systemCoinBalance = systemCoin.balanceOf(address(this));\n\n        if (systemCoinBalance >= inputSystemCoinAmount) {\n            systemCoin.safeTransfer(order.account, order.systemCoinAmount);\n        } else {\n            USBPool.borrowUSB(inputSystemCoinAmount - systemCoinBalance);\n            systemCoin.safeTransfer(order.account, order.systemCoinAmount);\n        }\n        emit BurnSynToken(pid, msg.sender, order.account, inputSystemCoinAmount, order.synTokenAmount);\n    }\n\n    function _cancelOrder(uint256 pid, uint256 _orderId) internal {\n        OrderInfo storage order = orderInfo[pid][_orderId];\n        PoolInfo memory pool = poolInfo[pid];\n\n        order.status = 2;\n        order.closeTime = uint64(block.timestamp);\n        if(order.orderType == 0) {\n            uint256 systemCoinBalance = systemCoin.balanceOf(address(this));\n            if (systemCoinBalance >= order.systemCoinAmount) {\n                systemCoin.safeTransfer(order.account, order.systemCoinAmount);\n            } else {\n                USBPool.borrowUSB(order.systemCoinAmount - systemCoinBalance);\n                systemCoin.safeTransfer(order.account, order.systemCoinAmount);\n            }\n        } else if(order.orderType == 1) {\n            pool.syntheticToken.safeTransfer(order.account, order.synTokenAmount);\n        }\n        emit CancelOrder(pid, _orderId, msg.sender);\n    }\n\n    function verifyTol(uint256 orderType, uint256 inputSystemCoinAmount, uint256 inputSynTokenAmount, uint256 _synTokenPrice, uint256 synTokenDecimal) public view returns (uint256 estimatedReturn, bool tolStatus) {\n        uint256 estimateAmount;\n        uint128 systemCoinDecimal = uint128(systemCoin.decimals());\n        if (orderType == 0) { \n            uint256 estSynTokenAmount = (inputSystemCoinAmount * 10 ** (synTokenDecimal)) / (_synTokenPrice * 10 ** (systemCoinDecimal - synPoolPriceDecimal));\n            estimateAmount = estSynTokenAmount;\n            uint256 tol = estimateAmount * tolCloseMargin / BIPS_DIVISOR;\n            return(estimateAmount, (inputSynTokenAmount <= estimateAmount + tol) && (inputSynTokenAmount >= estimateAmount - tol));\n        } else if (orderType == 1 ) {\n            uint256 estSysCoinAmount = inputSynTokenAmount * _synTokenPrice * 10 ** (systemCoinDecimal -  synTokenDecimal - synPoolPriceDecimal);\n            estimateAmount = estSysCoinAmount;\n            uint256 tol = estimateAmount * tolCloseMargin / BIPS_DIVISOR;\n            return(estimateAmount, (inputSystemCoinAmount <= estimateAmount + tol) && (inputSystemCoinAmount >= estimateAmount - tol));\n        }\n    }\n\n    /**************************************** View FUNCTIONS ****************************************/\n\n    function getSystemCoin() external view returns (address) {\n        return address(systemCoin);\n    }\n\n    function getUSBPool() external view returns (address) {\n        return address(USBPool);\n    }\n\n    function getReservePool() external view returns (address) {\n        return address(reservePool);\n    }\n\n    function getPoolLength() external view returns (uint256) {\n        return poolLength;\n    }\n\n    function getPoolOrderLength(uint256 pid) external view returns (uint256) {\n        return poolOrderLength[pid];\n    }\n\n    function getUserOrderLength(uint256 pid, address account) external view returns (uint256) {\n        return userOrderLength[pid][account];\n    }\n\n    function getTotalTxAmount() external view returns (uint256) {\n        return totalTxAmount;\n    }\n\n    function getMinTxAmount() external view returns (uint256, uint256) {\n        return (minSystemCoinTxAmount, minSynTokenTxAmount);\n    }\n\n    function getPoolPrice(uint256 pid) external view returns (uint256) {\n        PoolInfo storage pool = poolInfo[pid];\n        return synPoolPrice[address(pool.syntheticToken)];\n    }\n\n    /**\n    * @dev Get all orders for an account.\n    */\n    function getUserOrders(uint256 pid, address account) external view returns (OrderInfo[] memory orders) {\n        uint256 ordersLength = userOrderLength[pid][account];\n        orders = new OrderInfo[](ordersLength);\n        for (uint256 i = 0; i < ordersLength; i++) {\n            orders[i] = orderInfo[pid][userOrderId[pid][account][i]];\n        }\n    }\n\n    /**************************************** ONLY OWNER FUNCTIONS ****************************************/\n\n    function rescueDeployedFunds(address token, uint256 amount, address _to) external onlyOwner {\n        require(_to != address(0), \"0A\");\n        IERC20Upgradeable(token) .safeTransfer(_to, amount);\n    }\n\n    function addAuthorized(address _toAdd) onlyOwner external {\n        authorized[_toAdd] = true;\n    }\n\n    function removeAuthorized(address _toRemove) onlyOwner external {\n        require(_toRemove != msg.sender);\n        authorized[_toRemove] = false;\n    }\n\n    function setReservePool(address newReservePool) external onlyOwner {\n        require(newReservePool != address(0));\n        reservePool = newReservePool;\n    }\n\n    function setUSBPool(address newUSBPool) external onlyOwner {\n        require(newUSBPool != address(0));\n        USBPool = IUSBPool(newUSBPool);\n    }\n\n    function setPoolsMinTx(uint128 newSystemCoinTxFloor, uint128 newSynTokenTxFloor) external onlyOwner {\n        minSystemCoinTxAmount = newSystemCoinTxFloor;\n        minSynTokenTxAmount = newSynTokenTxFloor;\n    }\n\n    function setPoolsEnabled(uint256 pid, bool newMintsEnabled, bool newBurnsEnabled) external onlyOwner {\n        PoolInfo storage pool = poolInfo[pid];\n        pool.mintsEnabled = newMintsEnabled;\n        pool.burnsEnabled = newBurnsEnabled;\n        \n        emit PoolsEnabled(pid, newMintsEnabled, newBurnsEnabled);\n    }\n\n    function setTolCloseMargin(uint256 newTolCloseMargin) external onlyOwner {\n        tolCloseMargin = newTolCloseMargin;\n    }\n    \n    /**\n    * @notice For owner update SyntheticToken pool price\n    */\n    function updateSynPoolPrice(address synToken, uint256 _newSynPoolPrice) external onlyOwner {\n        require(address(synToken) != address(0), \"A!=0\");\n        synPoolPrice[synToken] = _newSynPoolPrice;\n    }\n\n    function updatePoolOraclAdd(uint256 pid, address oracle) external onlyOwner {\n        require(address(oracle) != address(0), \"A!=0\");\n        PoolInfo storage pool = poolInfo[pid];\n        pool.oracleChainlink = IAggregatorV3(oracle);\n    }\n\n    function setPoolsOracle(uint256 pid, bool newMintsEnabled, bool newBurnsEnabled) external onlyOwner {\n        PoolInfo storage pool = poolInfo[pid];\n        pool.mintsEnabled = newMintsEnabled;\n        pool.burnsEnabled = newBurnsEnabled;\n        \n        emit PoolsEnabled(pid, newMintsEnabled, newBurnsEnabled);\n    }\n\n    function updateOrderInfo(uint256 pid, uint256 _orderId, uint128 systemCoinAmount, uint128 synTokenAmount) external onlyOwner {\n        OrderInfo storage order = orderInfo[pid][_orderId];\n        require(order.status == 1, \"order not close\");\n        order.systemCoinAmount = systemCoinAmount;\n        order.synTokenAmount = synTokenAmount;\n\n        emit UpdateOrder(pid, _orderId, order.systemCoinAmount, order.synTokenAmount);\n    }\n\n    function _authorizeUpgrade(address) internal override onlyOwner {}\n\n    /**************************************************************\n     * @dev Initialize smart contract functions - only called once\n     *************************************************************/\n    function initialize() public initializer {\n        maxAmount = type(uint256).max;\n        BIPS_DIVISOR = 10000;\n\n        __Pausable_init();\n        __Ownable_init();\n        __UUPSUpgradeable_init();\n    }\n}",
  "sourcePath": "/Users/richardng/Desktop/Baklava contracts/contracts/SyntheticPool.sol",
  "compiler": {
    "name": "solc",
    "version": "0.8.15+commit.e14f2714.Emscripten.clang"
  },
  "schemaVersion": "3.4.7",
  "updatedAt": "2022-06-16T05:41:20.560Z",
  "devdoc": {
    "kind": "dev",
    "methods": {
      "getUserOrders(uint256,address)": {
        "details": "Get all orders for an account."
      },
      "owner()": {
        "details": "Returns the address of the current owner."
      },
      "paused()": {
        "details": "Returns true if the contract is paused, and false otherwise."
      },
      "proxiableUUID()": {
        "details": "Implementation of the ERC1822 {proxiableUUID} function. This returns the storage slot used by the implementation. It is used to validate that the this implementation remains valid after an upgrade. IMPORTANT: A proxy pointing at a proxiable contract should not be considered proxiable itself, because this risks bricking a proxy that upgrades to it, by delegating to itself until out of gas. Thus it is critical that this function revert if invoked through a proxy. This is guaranteed by the `notDelegated` modifier."
      },
      "renounceOwnership()": {
        "details": "Leaves the contract without owner. It will not be possible to call `onlyOwner` functions anymore. Can only be called by the current owner. NOTE: Renouncing ownership will leave the contract without an owner, thereby removing any functionality that is only available to the owner."
      },
      "transferOwnership(address)": {
        "details": "Transfers ownership of the contract to a new account (`newOwner`). Can only be called by the current owner."
      },
      "upgradeTo(address)": {
        "details": "Upgrade the implementation of the proxy to `newImplementation`. Calls {_authorizeUpgrade}. Emits an {Upgraded} event."
      },
      "upgradeToAndCall(address,bytes)": {
        "details": "Upgrade the implementation of the proxy to `newImplementation`, and subsequently execute the function call encoded in `data`. Calls {_authorizeUpgrade}. Emits an {Upgraded} event."
      }
    },
    "version": 1
  },
  "userdoc": {
    "kind": "user",
    "methods": {
      "updateSynPoolPrice(address,uint256)": {
        "notice": "For owner update SyntheticToken pool price"
      }
    },
    "version": 1
  }
}